:020000040001F9
:10C00000E051002005C501000DC501000FC501006C
:10C0100011C5010013C5010015C501000000000095
:10C0200000000000000000000000000017C5010033
:10C0300019C50100000000001BC501001DC501005D
:10C040001FC501001FC50100F5CF01001FC501007C
:10C050001FC501001FC50100D5C5010071C8010041
:10C06000DDCF01001FC501001FC501001FC5010074
:10C070001FC501001FC501001FC501001FC501002C
:10C080001FC501003DC801001FC501001FC50100FB
:10C090004DCD01001FC5010055CD01001FC5010098
:10C0A0001FC501001FC501001FC501001FC50100FC
:10C0B0001FC501001FC501000000000000000000B6
:10C0C0001FC501001FC501001FC501001FC50100DC
:10C0D0001FC501001FC501001FC5010000000000B1
:10C0E0000000000000000000000000000000000050
:10C0F0000000000000000000000000000000000040
:10C10000000000000000000000000000000000002F
:10C11000000000000000000000000000000000001F
:10C40000DFF80CD000F0D4F800480047ADF8010088
:10C41000E0510020401E00BF00BF00BF00BF00BFB2
:10C4200000BF00BF00BF00BF00BF00BF00BF00BF14
:10C4300000BF00BF00BF00BF00BF00BF00BF00BF04
:10C4400000BF00BF00BF00BF00BF00BF00BF00BFF4
:10C4500000BF00BF00BF00BF00BF00BF00BF00BFE4
:10C4600000BF00BF00BF00BF00BF00BF00BF00BFD4
:10C4700000BF00BF00BF00BF00BF00BF00BF00BFC4
:10C4800000BF00BF00BFC5D170470000401E00BF05
:10C4900000BF00BF00BF00BF00BF00BF00BF00BFA4
:10C4A00000BF00BF00BF00BF00BF00BF00BF00BF94
:10C4B00000BF00BF00BF00BF00BF00BF00BF00BF84
:10C4C00000BF00BF00BF00BF00BF00BF00BF00BF74
:10C4D00000BF00BF00BF00BF00BF00BF00BF00BF64
:10C4E00000BF00BF00BF00BF00BF00BF00BF00BF54
:10C4F00000BF00BF00BF00BF00BF00BF00BFC5D16D
:10C50000704700000648804706480047FEE7FEE700
:10C51000FEE7FEE7FEE7FEE7FEE7FEE7FEE7FEE7F3
:10C520009DCD010001C4010040EA01039B0703D037
:10C5300009E008C9121F08C0042AFAD203E011F862
:10C54000013B00F8013B521EF9D27047D2B201E024
:10C5500000F8012B491EFBD270470022F6E710B508
:10C5600013460A4604461946FFF7F0FF204610BD61
:10C57000034611F8012B00F8012B002AF9D11846C7
:10C58000704730B50B46014600202022012409E007
:10C5900021FA02F59D4205D303FA02F5491B04FA7C
:10C5A00002F52844151EA2F10102F1DC30BD0000A5
:10C5B000064C074D06E0E06840F0010394E80700F0
:10C5C00098471034AC42F6D3FFF71EFF901C0200D0
:10C5D000B01C02002DE9F04F87B00027BA464FF497
:10C5E000807006900125002412E0069803F020FEDA
:10C5F00040B100BF60480068284018B1069803F0B9
:10C6000009FE2F436D000698001D80B20690641C41
:10C61000082CEAD34FF4BE7003F00AFE48B14FF481
:10C62000BE7003F0F7FD47F0004700BF53480068B5
:10C630008246F8B2F8B1012500241AE005EA0700A5
:10C64000A8B100BF4E4850F82400C0F304200646AD
:10C6500000BF4B4850F82400C0F3014080462046FC
:10C6600002F0BEF9814641463046C84700BF6D0022
:10C67000641C082CE2D307F00040002879D04FF06A
:10C68000000B00200590401E049000BF4FF0000BEF
:10C69000002457E03B48005D0390039820F0C0065B
:10C6A00038480057401C00284BD00120B040049966
:10C6B0000840002845D003984FEA9019304602F010
:10C6C00097F9804602F08CF90290029810B9B9F1FE
:10C6D000030F35D1012000FA06F5B9F1030F02D19D
:10C6E00005982843059000BF274850F82600C0F35E
:10C6F000014800BF05EA0A0010B1B8F1020F05D0E9
:10C7000005EA0A00D8B9B8F1030F18D1B9F1030F3F
:10C710000FD1B8F1020F01D1032000E002200190F7
:10C720003046019903F03CFD0BF1010000F0FF0BD6
:10C7300000BF029818B149463046029A904700BFA0
:10C7400000BF641C042CA5D3BBF1000F0DD000BFAB
:10C750000A4909680846504503D14FF0000B03E031
:10C7600007E082460599049100BFBBF1000F8DD10F
:10C7700000BF07B0BDE8F08F046300401005005013
:10C78000106500407C2700200007005000F01F02C9
:10C7900001219140024A430942F8231070470000EA
:10C7A00080E200E000F01F02012191404209920066
:10C7B00002F1E022C2F800117047000000F01F02F1
:10C7C00001219140024A430942F8231070470000BA
:10C7D00000E200E010B5002807DA4A07140E054A07
:10C7E00000F00F031B1FD45403E04A07130E024A44
:10C7F000135410BD18ED00E000E400E000BF00BFDE
:10C8000000BFBFF34F8F00BF00BF00BF09480068E3
:10C8100000F4E06008490843001D0649086000BFB5
:10C8200000BF00BFBFF34F8F00BF00BF00BF00BFFE
:10C8300000BFFDE70CED00E00000FA0510B5002098
:10C840000949086000210948C0F84411C0F848119E
:10C85000C0F84C1100200549C1F8000102493C39DB
:10C86000086004F0DDFC10BD4011014000100140E3
:10C87000FEB54FF4827003F0E7FC38B34FF48270DA
:10C8800003F0ECFC00208DF800002D48406801907A
:10C8900000BF2C48006880B2ADF808002848C06886
:10C8A00020B90020264981F827000AE02448C06802
:10C8B000234948600846808A08810020C86003F048
:10C8C000D3FC1F4801686846884700BF4FF48A7050
:10C8D00003F0BAFC40B14FF48A7003F0BFFC0020B3
:10C8E000174981F827002AE01548056924E0B5FAC0
:10C8F00085F64FF00040F0408543B00000F58C74A1
:10C90000204603F0A1FCB8B1204603F0A7FC0120AB
:10C910008DF80000A4F58C70C0F3C7008DF80400FA
:10C92000A4F58C70012121EA90018DF805100448CE
:10C9300001686846884700BF002DD8D100BFFEBD02
:10C940007C280020347600402DE9F04704460E464E
:10C9500017469846DDF8209000BF1F48007808B9B8
:10C9600000F054FB00BF1C484069A0422ED900BF14
:10C970000CB304EB44011848483040F8316004EB34
:10C98000440100EBC100476004EB44011248483009
:10C9900000EBC100C0F80880002104EB44020E48FF
:10C9A000483000EBC200016104EB44020A48483001
:10C9B00000EBC200C16004EB44010748483000EBC3
:10C9C000C100C0F8149000BF002501E04FF0FF3512
:10C9D0002846BDE8F0870000583100202DE9F047D7
:10C9E00004460E4617469846DDF8209000BF1F48C3
:10C9F000007808B900F00AFB00BF1C480069A0429B
:10CA00002ED900BF0CB304EB44011848183040F88D
:10CA1000316004EB440100EBC100476004EB4401CA
:10CA20001248183000EBC100C0F80880002104EB68
:10CA300044020E48183000EBC200016104EB4402CE
:10CA40000A48183000EBC200C16004EB44010748FB
:10CA5000183000EBC100C0F8149000BF002501E0C1
:10CA60004FF0FF352846BDE8F08700005831002020
:10CA70002DE9F04104460D46164600BF08480078EF
:10CA800008B900F0C3FA00BF00BF3246294620466D
:10CA900000F008F8074600BF3846BDE8F081000006
:10CAA000583100202DE9F047074688461646C24611
:10CAB00007EB47011B4800EBC109D9F8140020B16E
:10CAC000012811D0022826D11EE0484600F0D6FAEF
:10CAD0000546B54201D2002405E0344632465146AF
:10CAE000484600F020FC18E0484600F0C7FA05462A
:10CAF000B54201D2284600E030460446224651465F
:10CB0000484600F010FC08E032465146484600F026
:10CB1000D1FB044601E0002400BF00BF2046BDE871
:10CB2000F0870000703100200FB438B5044606A825
:10CB300000906A462046059900F003F838BC5DF87D
:10CB400014FB2DE9F04F99B082460D46144603A818
:10CB500014904020159000201690CDF860A01790FA
:10CB600000BF2E786D1C06B9DDE0252E79D1002797
:10CB70004FF0010900BF2E78232E12D02B2E0CD09F
:10CB80002D2E02D0302E10D103E047F001076D1C8E
:10CB90000EE047F002076D1C0AE047F004076D1C29
:10CBA00006E047F008076D1C02E04FF0000900BFE7
:10CBB00000BFB9F1000FDED14FF0000800BF2E78A2
:10CBC000302E01DB392E00DD07E06D1CA6F13000B0
:10CBD00008EB880100EB4108F1E700BF002013904B
:10CBE0002E782E2E12D16D1C00BF2E78302E01DB38
:10CBF000392E00DD09E06D1CA6F13000139901EB20
:10CC0000810100EB41001390EFE700BF2E7800BFD9
:10CC10006C2E01D0682E02D12E786D1C00E000E051
:10CC2000F6E700BF702E5DD008DC252E6AD0582EA6
:10CC300035D0632E09D0642E69D113E0732E3CD019
:10CC4000752E1DD0782E62D128E02168081D206045
:10CC5000D1F8009009F0FF0B594614A800F008FB2A
:10CC600056E058E02168081D2060D1F80090CDE919
:10CC700000870A22494614A8139B00F00DFA47E0EA
:10CC80002168081D2060D1F80090CDE900870A22B4
:10CC9000494614A8139B00F075FA39E000BF2168DB
:10CCA000081D2060D1F80090CDE900871022494688
:10CCB00014A8139B00F066FA2AE02168081D206082
:10CCC000D1F800B000BF9BF800600BF1010B06B972
:10CCD00006E0314614A800F0CBFA17980028F2DAE3
:10CCE00000BF15E02168081D2060D1F800900020E9
:10CCF00008210B461022CDE90010494614A800F087
:10CD000041FA05E0252114A800F0B2FA00E000BFC6
:10CD100000BF6D1C03E0314614A800F0A9FA179873
:10CD20000028BFF61EAF00BF179800280ADD16982E
:10CD300020B103A95046169AFFF79AFEDDE91610B6
:10CD400008441790179819B0BDE8F08F10B504F09B
:10CD50007FF910BD70B50B48006880B109480068C4
:10CD60008047044600BF25463DB100BF064A4FF448
:10CD7000B371284600F0D9FD00BF00BF01E002F00A
:10CD800009FA70BDD0200020401C02000148024971
:10CD9000086070470090D003E820002010B502F032
:10CDA00041F810B181488249486702F053F828B130
:10CDB00080480068C0F342307F49086002F074F890
:10CDC00028B17E48006820F080707C49086002F03D
:10CDD00083F848B100207A4908604FF08041C1F8DB
:10CDE00010017549091F086002F0A0F818B103206E
:10CDF00071496431086002F0B1F868B105207149E9
:10CE0000086001206F497831086000206D490831C1
:10CE100008603F20091F086002F0B8F8002855D0CC
:10CE200069480068694908606748001D0068091D75
:10CE30000860654808300068091D086062480C30C9
:10CE40000068091D0860604810300068091D08600E
:10CE50005D4814300068091D08605B4818300068A0
:10CE60005A492031086058481C300068091D086084
:10CE7000554820300068091D086053482430006878
:10CE8000091D0860504828300068091D08604E4898
:10CE90002C300068091D08604B48303000684B4951
:10CEA00040310860484834300068091D0860464831
:10CEB00038300068091D086043483C300068091D8F
:10CEC0000860414840300068091D08603B487438DC
:10CED000006840F4700039497439086000BF00BF31
:10CEE00000BFBFF34F8F00BF00BF00BF00BF00BF38
:10CEF00000BFBFF36F8F00BF00BF00BF34480068A2
:10CF000000F00100F0B101203249086000BF324852
:10CF100000680028FBD02E48006820F001004FF088
:10CF20001021C1F80C0200BF2B4800680028FBD07C
:10CF300000202849086000BF274800680028FBD06F
:10CF4000FFF75CFC22480C38006800F0004028B96C
:10CF50001F480838006800F0004018B301201D4940
:10CF6000086000BF1C4800680028FBD01520184945
:10CF70000C39086000BF184800680028FBD0152154
:10CF800013480838016000BF134800680028FBD030
:10CF900000201049086000BF0F4800680028FBD03F
:10CFA000FFF72CFCFFF7F2FE10BD00000DF0ADBA4C
:10CFB00000C00740440200103C050040FCED00E0CA
:10CFC0000C010040105600400404001020C5004031
:10CFD0000C12001004E5014000E4014010B50422E9
:10CFE0000249034802F02EF910BD0000A8280020D5
:10CFF0000080004010B50448007F10B104F014FC1C
:10D0000001E004F061FB10BD8427002010B5124C34
:10D0100002202061606111A0A0611349E1614FF419
:10D02000806121620021A1626162E1620BA0A064C3
:10D030000E49E164102121650021A1656165E1656A
:10D040000BA1E01DFFF794FA0AA12046FFF790FA22
:10D050002020A07110BD0000583100205465726D71
:10D06000696E616C00000000482D002048310020EE
:10D0700052545400534547474552000010B50146ED
:10D080000A69CB689A4204D88C68641EE41AA01816
:10D0900001E0D41A601E10BD2DE9FC5F06460F4664
:10D0A00092469846DDE90C45002F01DA784200E00F
:10D0B000384683464FF0010903E09BFBFAFB09F178
:10D0C0000109D345F9DAC84500D9C14634B1002F6A
:10D0D00003DB05F00400042800D1641E05F0020003
:10D0E00010B1B8F1000F11D005F0010070B96CB1AA
:10D0F00008E0641E2021304600F0BAF8F0680028ED
:10D1000000DA02E00CB1A145F3D300BFF0680028BB
:10D1100036DB002F05DA7F422D21304600F0A8F8DB
:10D1200007E005F00400042803D12B21304600F06D
:10D130009FF8F068002823DB05F00200022814D1D4
:10D1400005F0010088B9B8F1000F0ED16CB108E00C
:10D15000641E3021304600F08BF8F068002800DAB9
:10D1600002E00CB1A145F3D300BFF068002807DB53
:10D170004346524639463046CDE9004500F002F8B4
:10D18000BDE8FC9F2DE9FC5F8046894615461E469A
:10D190000C9CCDF804900127BB4605E00198B0FB3C
:10D1A000F5F001900BF1010B0198A842F6D25E4513
:10D1B00000D9B3460D9800F00100D0B9CCB10D985C
:10D1C00000F00200022803D116B93020009001E0DF
:10D1D0002020009009E0641E4046009900F048F8C5
:10D1E000D8F80C00002800DA02E00CB1A345F2D315
:10D1F00000BFD8F80C00002835DB09E0012E01D96A
:10D20000761E04E0B9FBF7FAAA4500D201E06F43AD
:10D21000F4E700BF00BFB9FBF7FA0AFB1799134800
:10D2200010F80A10404600F023F8D8F80C00002847
:10D2300000DA03E0B7FBF5F7002FECD100BF0D9843
:10D2400000F0010078B174B109E0641E202140466D
:10D2500000F00EF8D8F80C00002800DA02E00CB15B
:10D26000A345F2D300BFBDE8FC9F0000301C0200C4
:10D2700070B504460E46A568681C6168814206D3F5
:10D2800020684655681CA060E068401CE060D4E956
:10D29000011088420DD1A26821682069FFF7E8FBE0
:10D2A000A168884203D04FF0FF30E06001E0002029
:10D2B000A06070BD2DE9F0470446894617464FF03F
:10D2C000000AE56800BFD4F81080A84503D9A8EB90
:10D2D0000500461E04E0A5EB0800401CA1680E1ADC
:10D2E000A068401BB04201D9304601E0A068401B55
:10D2F0000646BE4201D2304600E038460646616826
:10D30000481932464946FFF70FF9B244B144BF1BF2
:10D310003544A068A84200D10025E560002FD2D195
:10D320005046BDE8F0872DE9F0470446894615468A
:10D33000E668A068871BAF4208D9616888192A4649
:10D340004946FFF7F1F87019E06010E0B8466168EF
:10D35000881942464946FFF7E7F8A5EB070809EBAD
:10D36000070142466068FFF7DFF8C4F80C80BDE8AB
:10D37000F08700000FB4054B10B503A9044A0298CA
:10D3800000F018F810BC5DF814FB0000D1F00100AB
:10D39000EC20002002E008C8121F08C1002AFAD1C0
:10D3A00070477047002001E001C1121F002AFBD125
:10D3B000704700002DE9FF4F89B09B4604460025C9
:10D3C00006E025280BD05A460B999047641C6D1C2B
:10D3D00020780028F5D10DB02846BDE8F08F002751
:10D3E000B8460122474900E0074314F8013F203BBB
:10D3F00002FA03F00842F7D120782E2819D114F848
:10D40000010F47F004072A280ED06FF02F02207872
:10D41000A0F1300109290CD808EB880102EB410189
:10D4200000EB0108641CF2E70A98641C50F8048BB6
:10D430000A9020780028CED0642808D0692806D029
:10D4400075281ED05A460B9990476D1C58E00A99D2
:10D450004FF00A0901C90A91002802DA40422D2141
:10D4600002E0390504D52B218DF82010012103E0BD
:10D47000F90704D02021F7E78A4608AE0DE0002125
:10D48000FAE70A994FF00A0901C90A91F7E74946F4
:10D49000FFF777F8303106F8011D0028F7D1ADEB22
:10D4A000060000F12009780701D44FF00108C845B3
:10D4B00002DDA8EB090000E000208046002706E01E
:10D4C00008A85A46C05D0B9990476D1C7F1C5745B4
:10D4D000F6DB04E030205A460B9990476D1CB8F1FA
:10D4E0000001A8F10108F5DC05E016F8010B5A4629
:10D4F0000B9990476D1CB9F10001A9F10109F4DC09
:10D50000641C65E7092801002DE9FC4104468846B2
:10D5100016460025378800203080606B68B1616B4B
:10D5200008783B463246414603F0EAFA054600BF1A
:10D5300015B12846BDE8FC8100BF206B58B13B46C1
:10D5400032464146206B03F0E1FE054600BF0DB1B7
:10D550002846EFE700BF94F82E0060B194F82E0043
:10D560003B463246414601F0ADFE054600BF0DB1D7
:10D570002846DFE700BF94F82D0050B13A46314607
:10D58000404600F0B6FF054600BF0DB12846D1E782
:10D5900000BFA07850B13A463146404600F0AAFBA1
:10D5A000054600BF0DB12846C4E700BFE07860B172
:10D5B000E17848B23B463246414601F053FD05460C
:10D5C00000BF0DB12846B5E700BF606868B161686B
:10D5D00091F900003B463246414603F065FF05469F
:10D5E00000BF0DB12846A5E700BF208900280EDD49
:10D5F00043460622022104F10800CDE9006704F049
:10D600003DFA054600BF0DB1284693E700BF208ACA
:10D6100000280EDD43460722032104F11000CDE966
:10D62000006704F02BFA054600BF0DB1284681E7DC
:10D6300000BF208B00280EDD43461522142104F183
:10D640001800CDE9006704F019FA054600BF0DB1D6
:10D6500028466FE700BF206A58B13B463246414634
:10D66000206A01F040FA054600BF0DB1284661E787
:10D6700000BF606A58B13B4632464146606A02F0DC
:10D6800025FA054600BF0DB1284653E700BF94F8C0
:10D690002C0000280BDD3B4632464146204603F075
:10D6A0004AFA054600BF0DB1284643E700BF20787F
:10D6B00058B13B4632464146204602F042FA054602
:10D6C00000BF0DB1284635E700BF284632E70146C6
:10D6D000C87800F0040008B9072070470020FCE774
:10D6E00010B501220221002001F01CF9044600BF00
:10D6F0001CB1072C01D0204610BD00BF072202211B
:10D70000012001F00FF9044600BF1CB1072C01D025
:10D710002046F1E700BF0A220021084601F002F985
:10D72000044600BF1CB1072C01D02046E4E700BF2F
:10D730000020E1E730B5A7B0382119A8FEF70DFFAA
:10D7400002208DF8640000208DF8660006208DF818
:10D75000670038210BA8FEF700FF0120ADF83C0060
:10D7600011491091242102A8FEF7F7FE01208DF83F
:10D77000140040200690002007900C4B02AA0BA931
:10D78000009019A800F09CFB044600BF25463DB15F
:10D7900000BF07A240F25721284600F0C6F800BF9C
:10D7A00000BF27B030BD0000EC1F00200D040200B8
:10D7B0002E2E5C2E2E5C2E2E5C6D61696E2E63000B
:10D7C00010B504460DA10020FFF7AEF910492068FE
:10D7D000086041F27C5088600846D4F80A10C161A4
:10D7E000E1890184217C80F822100949606948623E
:10D7F000208988856068886210BD00006170705F54
:10D80000626561636F6E5F696E69743A0D0A00004C
:10D81000B426002070B505462A4619A10020FFF75E
:10D8200083F9042D18D0052D17D0072D02D0082D0F
:10D8300023D110E01948407960B1002017494871A0
:10D8400050DF044634B11548406A18B11348416AA4
:10D850002046884712E011E000BF1048007958B117
:10D86000002001F0A1FF044634B10C48406A18B111
:10D870000A48416A2046884700E000BF00BF70BDEB
:10D880006170705F626561636F6E5F6F6E5F737909
:10D89000735F6576743A2025640D0A00B426002073
:10D8A00010B51448407910B91248007900B110BD84
:10D8B00011A10020FFF738F901200E4908714871C5
:10D8C00012484FDF044634B10A48406A18B109488B
:10D8D000416A20468847012001F066FF044634B1C2
:10D8E0000448406A18B10348416A2046884700BF8F
:10D8F000DDE70000B42600206170705F626561633F
:10D900006F6E5F73746172743A0D0A000DF8010056
:10D9100070B504460D4616460C2001F008F8324654
:10D920002946204600F012F870BDFEB504460E46AA
:10D930001546B0B2ADF80000019502946A46002188
:10D9400044F20100FFF7E4FFFEBD000018B501231B
:10D9500000939DF800301E4B186059609A606FF478
:10D960008043034463B1012B19D1194BDA60DB68A2
:10D970001B88174CA3612346DB685B68E3610EE0FC
:10D98000134B1A611B699B68114C636123461B6929
:10D990001B88A36123461B695B68E36100BF00BF6E
:10D9A0000B4B1B680A4B5B68094B9B68084BDB6899
:10D9B000074B1B69064B5B69054B9B69044BDB6995
:10D9C00072B600BF9DF80030002BFBD162B618BDC7
:10D9D000B428002070B504460D46204601F02BFB0C
:10D9E00028B12946204601F015FB002070BD052016
:10D9F000FCE7034609B90E20704712B1501E1040D3
:10DA000008B10920F8E71960501E9880002098603E
:10DA1000D86000BFF0E770B504460D46204601F01F
:10DA20000AFBA188884205D82946204601F011FB4F
:10DA3000002070BD0420FCE710B503460C4600BF73
:10DA40000B48006808B9082010BD00BF0AB90720BC
:10DA5000FAE70BB90720F7E71868007C08B108203F
:10DA6000F2E71968002008744C744A6100BFEBE7C4
:10DA7000AC2000202DE9F04180460E4614461F469A
:10DA8000204600F0030109B9012100E0002111B98D
:10DA90000720BDE8F08124B900201D490860072057
:10DAA000F7E702F067FE1B48076003201A49087079
:10DAB00017480460183400250DE01549096801EB8A
:10DAC000C5000021017041708670446006EB46017C
:10DAD00004EBC1046D1C032DEFDB00200F4908602F
:10DAE0000F4908700F4908701420FEF74FFE0621F9
:10DAF0001420FEF76FFE1420FEF754FE404602F09D
:10DB00000FFE02F007FE084908600020C1E7000090
:10DB1000AC200020C4200020A8200020B02000203D
:10DB2000C0200020C1200020B42000202DE9F843AF
:10DB300004460D461746264600BF1148006810B936
:10DB40000820BDE8F88300BF0CB90820F9E7052DCF
:10DB500001D20720F5E7706908B90820F1E7707C69
:10DB6000012801D1284600E00020804603F040FF54
:10DB7000814643462A463146009703F003FBE0E71F
:10DB8000AC20002070B50446254600BF0948006857
:10DB900008B9082070BD00BF0CB1686908B9082039
:10DBA000F8E70020287403F023FF0646294603F017
:10DBB00017FBEFE7AC20002070B504460A4801F0DF
:10DBC00035FA09498988884208D10121074802F0BD
:10DBD000C9F805460DB1052070BD00BF21460248B9
:10DBE000FFF7F8FEF8E700000C2700207D2000205A
:10DBF0002DE9F04188B004460D461746984629485D
:10DC000007601DB9072008B0BDE8F081A88882B27E
:10DC100025482968FFF7EDFE064600BF0EB13046E5
:10DC2000F1E700BFA88982B22048A968FFF7E1FEAA
:10DC3000064600BF0EB13046E5E700BF20221C4972
:10DC40006846FEF771FCA0680690207908B10120B3
:10DC500000E000208DF814008DF81C80607908B178
:10DC60000E2000E000208DF81500E0780290A078EA
:10DC7000039020780190607800900E49684601F08A
:10DC8000FFFF064600BF0EB13046BCE700BF9DF85F
:10DC90001D0008B902F0BEF80121074802F062F841
:10DCA000B1E70000782000200C2700201C2700206E
:10DCB000F01B0200991502007D20002070B504467B
:10DCC00021460A48FFF7A7FE054665B902F008FAA3
:10DCD00048B907490548FFF77DFE20B901210448EE
:10DCE00002F05CF90546284670BD00001C270020A4
:10DCF0007C200020F8B505460C4617462088001DFC
:10DD0000B84201D90C20F8BD684679DF064600BF4D
:10DD10000EB13046F7E700BF032021886854208801
:10DD2000401C20801920218868542088401C2080B5
:10DD300020884119BDF8000003F00CFE218808443A
:10DD400020800020DFE7000010B50446206802F0C4
:10DD50004BFA206802F00CFA0021606802F0EEF93C
:10DD60002548007F18B3A0692449086000BF607D82
:10DD7000217D40EA0102224BC3F86C2500BF184602
:10DD8000D4E9001202F0D5FA207D012832D1002119
:10DD9000A06802F0D3F9E06802F026FAE06802F029
:10DDA000E7F91748D4E9022102F0AFFA22E0A069AE
:10DDB0001249086000BF607D217D40EA0102104BDE
:10DDC000C3F86C2500BF1846D4E9001202F088FAA7
:10DDD000207D01280ED10021A06802F0AFF9E06893
:10DDE00002F002FAE06802F0C3F90548D4E9022122
:10DDF00002F05FFA10BD00008427002024250040B7
:10DE00000020004010B5044600BF04A240F23131AA
:10DE10002046FFF78AFD00BF10BD00002E2E5C2EAD
:10DE20002E5C2E2E5C6D61696E2E63002DE9F04133
:10DE300092B080460D461F2011901090B8F1000F4F
:10DE400017D04046FFF743FC044600BF1CB12046F4
:10DE500012B0BDE8F08100BF11AA08A94046FFF743
:10DE600053FB044600BF0CB12046F1E700BF08AEEB
:10DE700002E0002600201190ADB1284603F07AF8A8
:10DE8000044600BF0CB12046E2E700BF10AA694675
:10DE90002846FFF739FB044600BF0CB12046D7E700
:10DEA00000BF6F4602E0002700201090BDF8400040
:10DEB000C3B2BDF84400C1B23A46304672DFC7E78C
:10DEC0002DE9F04704460F4615461E46DDF8208032
:10DED00000BF14B90E20BDE8F08700BF00BF0DB928
:10DEE0000E20F8E700BF002046490870464806604B
:10DEF0004648C0F80080242229464548FEF714FB16
:10DF000000F018F9434844490860444888603821C3
:10DF10004348FEF722FB207841490870A0788870BA
:10DF2000E078C870607848700846D4E90412C0E907
:10DF30000412D4E90212C0E90212D4E90612C0E9BF
:10DF40000612606AD8B1374835494862364981605F
:10DF5000606A00883249496A0880606A808830496E
:10DF6000496A8880002005E0616A8968095C2E4A58
:10DF70001154401C2A49496A89888142F4D8A06A10
:10DF800020B32A492A4881602549886227492448C4
:10DF9000806A8160A06A80882149896A8880A06A35
:10DFA00000881F49896A0880002005E0A16A896805
:10DFB000095C1E4A1154401C1949896A89888142AA
:10DFC000F4D894F82C00164981F82C00206A58B136
:10DFD000184813490862206A4088096A4880206A04
:10DFE00000880F49096A0880606820B112480C490E
:10DFF00048606068486039460948FFF717FF814666
:10E00000484668E7482000204020002044200020A7
:10E01000AC250020E0250020D0250020002600208F
:10E0200074250020202600202C26002058260020C1
:10E030004C2600204C2000205020002070B50446C3
:10E040002088102804D0112809D01B2863D11BE098
:10E05000A07D012802D1A088304908805CE0002022
:10E060002F490870A0882D49098888420BD10120CA
:10E0700000F0A4F8054635B12A48006818B12846D2
:10E0800028490968884747E0207A002842D1264875
:10E090000078012806D0022811D003281CD00428BB
:10E0A00036D129E0022000F089F8054635B11D4837
:10E0B000006818B128461B490968884729E00320F1
:10E0C00000F07CF8054635B11648006818B12846BE
:10E0D0001449096888471CE003201449087004208B
:10E0E00000F06CF8054635B10E48006818B12846B6
:10E0F0000C49096888470CE000200C4908700C485E
:10E10000006820B10846007809490968884700E09E
:10E1100000BF00BF00E000BF00BF70BD5220002064
:10E120004920002044200020482000203C200020DE
:10E1300040200020024800210160818081717047E9
:10E140003520002010B518480078012829D117483B
:10E15000007830BB1648007830B174DF044600BF49
:10E160000CB1204610BD00BF0120104908700620E8
:10E170001049C87000210F48FFF758FE044600BF41
:10E180000CB12046EEE700BF0948007800F016F811
:10E19000044634B10848006818B1204606490968A9
:10E1A00088470020DEE70000AC2500204920002041
:10E1B00048200020742500204420002030B587B07E
:10E1C00005469548057000F068FF28B10120934985
:10E1D0000870002007B030BDFFF7ACFF90484078D2
:10E1E00018B18D48007801280DD08D48807818B17D
:10E1F00089480078012806D08948807888B1864807
:10E20000007802280DD18748006838B1012086497E
:10E210000870082083490968884702E00020824985
:10E2200008707D480078012809D17D48407818B1F0
:10E230007E4802F03DFA10B902207749087076480E
:10E240000078022809D17648807818B1774802F022
:10E250002FFA10B90320704908707148007B30B95B
:10E260006D480078032802D104206B4908706C487F
:10E27000007E40B968480078042804D1002066492F
:10E2800008706B49087067480068A8B16248007858
:10E29000032803D06048007804280DD16048007836
:10E2A00050B16448007838B90120634908700720EC
:10E2B0005C490968884702E000205F49087018211E
:10E2C00001A8FEF74AF900208DF8040002908DF8AD
:10E2D0000C00049050480078012806D0022813D082
:10E2E000032825D0042876D150E05048401E0290E3
:10E2F00001208DF804000020ADF81600ADF81400E0
:10E3000001204B49087071E04848401E02900120EE
:10E310008DF804004248008980B2ADF816004048EC
:10E32000808880B2ADF814000220414908705DE099
:10E330003B48808A80B2ADF816003948008A80B226
:10E34000ADF814003D4803F02EFCD8B134480078F5
:10E35000C0B138480078A8B902208DF80C003748C1
:10E36000049004203649C87000213548FFF75EFD4F
:10E37000044600BF0CB120462CE700BF05202C4905
:10E38000087002E003202A4908702FE02448808B9F
:10E3900080B2ADF814002248008C80B2ADF81600AF
:10E3A000264803F000FCE0B11D480078C8B12148C0
:10E3B0000078B0B902208DF80C00204804900420A9
:10E3C0001F49C87000211E48FFF730FD044600BFFA
:10E3D00014B12046FEE608E000BF0620144908708C
:10E3E00002E004201249087000E000BF00BF0A48A4
:10E3F000007838B101A873DF044600BF0CB1204695
:10E40000E8E600BF0748006820B1094800780549E0
:10E41000096888470020DDE64820002034200020DD
:10E42000AC250020402000204B200020362000207A
:10E430003C200020492000204A200020D025002038
:10E440007425002070B505461C2229461248FEF7A7
:10E450006BF8002011490870286850B110482968ED
:10E460000A680260496841607ADF04463CB1204690
:10E4700070BD0B487BDF04460CB12046F8E74FF631
:10E48000FF7008490880002007490870074A0021EA
:10E490000748FFF7D1FAEBE7782600206820002034
:10E4A000542000205E2000205C2000206119020022
:10E4B000DC1B020010B504462088102806D0112865
:10E4C00008D012280ED0502810D107E0204602F0C4
:10E4D00057F80CE0204602F073F808E0204602F0FE
:10E4E00093F804E0204602F03FF800E000BF00BFD0
:10E4F00010BD2DE9FC4105460C4617462088093021
:10E50000B84202D90C20BDE8FC81684671DF06469E
:10E5100000BF0EB13046F6E700BF082021886854DE
:10E520002088401C20801B20218868542088401CA3
:10E53000208020882844DDF801100160BDF8051016
:10E5400081802088801D20809DF8000018B900205F
:10E550002188685402E00120218868542088401CEA
:10E5600020800020CFE7000010B504462046FFF7CA
:10E57000A1FF2146064800F059F8204601F06AFF45
:10E580002046FFF75BFD204600F040F910BD00007B
:10E59000F020002070B586B004460E46224B0FCB0B
:10E5A00001AD0FC500BF14B90E2006B070BD00BF8D
:10E5B00000BF0EB90E20F8E700BF4FF6FF70A08233
:10E5C0003068A0610020A075214601A863DF0546E0
:10E5D00000BF0DB12846E8E700BF20788DF816008F
:10E5E00041F23830ADF81400A21C05A90120A0DFCB
:10E5F000054600BF0DB12846D7E700BF314620468B
:10E6000002F00CF9054600BF0DB12846CDE700BF6A
:10E610003146204602F0BAFE054600BF0DB128463D
:10E62000C3E700BF0020C0E7E01B020070B505464D
:10E630000C4605B104B970BD2088102804D01128FB
:10E6400007D050280FD109E02146284601F0B4FF39
:10E650000AE02146284601F0D3FF05E0214628467E
:10E6600001F0FEFF00E000BF00BF00BFE3E737B5E9
:10E6700084B004460D4600BF14B90E2007B030BD6B
:10E6800000BFA08A4FF6FF71884201D0A07D08B973
:10E690000820F3E7BDF81800142801DD0720EDE796
:10E6A00000200090019002900390A089ADF8000036
:10E6B000039506A8029001208DF80200A08A694601
:10E6C000A6DFDBE770B586B038480068059000BF6C
:10E6D00000234822364905A802F00CFC054600BF7D
:10E6E0002E463EB100BF33A240F2B9113046FFF7CB
:10E6F0001CF900BF00BF00BF6A460121002002F0E4
:10E70000D9FB044600BF25463DB100BF29A240F217
:10E71000BF112846FFF709F900BF00BF00BF294E0F
:10E72000304602F03BF9044600BF25463DB100BF2C
:10E7300020A24FF4E1712846FFF7F7F800BF00BFB1
:10E7400000BF684602F034FB044600BF25463DB1D9
:10E7500000BF18A240F2C5112846FFF7E6F800BF37
:10E7600000BF1948007878B9184802F015FB044634
:10E7700000BF25463DB100BF0EA24FF4E57128460B
:10E78000FFF7D3F800BF00BF114802F0E7FB0446D3
:10E7900000BF25463DB100BF06A24FF4E7712846F1
:10E7A000FFF7C3F800BF00BF06B070BDC01B02007A
:10E7B000382100202E2E5C2E2E5C2E2E5C6D616981
:10E7C0006E2E6300E81F0020FF1F002069E5010096
:10E7D000CF0F020070B505460C46002609480560BB
:10E7E00044B1204602F0CDFB064600BF0EB13046D4
:10E7F00070BD00BF0448006810B9FEF771FF0646FF
:10E800003046F5E72C2000203020002070B505466A
:10E810002888102802D011282CD115E0174800684C
:10E8200060B900F023FA044600BF34B11448006810
:10E8300018B1204612490968884700BF0F48006890
:10E84000401C0E49086016E00C480068401E0B4949
:10E8500008600846006860B9FEF742FF044600BF42
:10E8600034B10748006818B120460549096888474F
:10E8700000BF00E000BF00BF70BD000030200020DE
:10E880002C20002010B5032000F058F8044600BFEB
:10E890001CB1062C01D0204610BD00BF0020FBE7B4
:10E8A000024600200870704770B50546042D06D05A
:10E8B000072D18D00A2D28D102F036FA26E01321B0
:10E8C0001348008876DF0446082C0BD000BF26468C
:10E8D0003EB100BF0FA24FF4F1713046FFF725F8AB
:10E8E00000BF00BF12E0FFF72DFC0446082C0BD040
:10E8F00000BF26463EB100BF06A24FF4F571304678
:10E90000FFF713F800BF00BF00E000BF00BF70BDFD
:10E91000EA1F00202E2E5C2E2E5C2E2E5C6D61696F
:10E920006E2E630010B503460020072010BD01467F
:10E930000020704710B50346002010BD0146062098
:10E9400070470000024600BF00BF07480068D04083
:10E9500000F001000028F7D1481CC1B2062900DDF3
:10E96000012108467047000010050050F8B5054623
:10E97000164A40F6CD410320FFF7DCFF044600BFF6
:10E9800026463EB100BF12A240F265213046FEF796
:10E99000CCFF00BF00BF69460020FFF71BFF044605
:10E9A00000BF26463EB100BF09A24FF41A7130469F
:10E9B000FEF7BBFF00BF00BF9DF80000022801D199
:10E9C000012000E000202870F8BD0000A9E8010047
:10E9D0002E2E5C2E2E5C2E2E5C6D61696E2E6300D9
:10E9E0000146024850F82100704700002C27002003
:10E9F00001460148405670475C2700202DE9F0474A
:10EA000082461F480068002836D01D480068056807
:10EA100001F080FE07461B4804682146384602F094
:10EA2000DCFAC61C1848007808B901F085FEAE4231
:10EA300001D2284600E03046044424F07F442046BA
:10EA400001F062FE01F066FE80463946404602F063
:10EA5000C4FA00F103093946204602F0BEFA8145A6
:10EA600009D901F057FE814601F04EFE2F20FDF737
:10EA70000DFD02F021FC01E001F07CFEBDE8F08715
:10EA8000B0200020B4200020C820002001460888C3
:10EA9000062808DB0888B0F5486F06DD08884FF6C1
:10EAA000FF72904201D0072070474888062808DB93
:10EAB0004888B0F5486F06DD48884FF6FF729042EF
:10EAC00001D00720F0E708884FF6FF72904208D087
:10EAD0004888904205D008884A88904201DD072086
:10EAE000E2E70020E0E72DE9F04106460D46144636
:10EAF00098462088801D404502D90C20BDE8F08151
:10EB00003046FFF7C3FF074600BF0FB13846F5E7B1
:10EB100000BF0520218868542088401C20801220D6
:10EB2000218868542088401C208022885119308810
:10EB300002F010FF21880844208022885119708833
:10EB400002F008FF2188084420800020D6E700005A
:10EB500010B5044600BF04A240F227112046FEF77C
:10EB6000E4FE00BF10BD00002E2E5C2E2E5C2E2E6B
:10EB70005C6D61696E2E630030B587B01C216846FC
:10EB8000FDF7EBFC002000904FF4203001904FF493
:10EB90007020029003208DF80C000020ADF80E00CC
:10EBA0008DF810000A4805900A4806906846FFF75D
:10EBB00049FC044600BF25463DB100BF06A240F215
:10EBC0003D112846FEF7B1FE00BF00BF07B030BDC3
:10EBD0002905020051EB01002E2E5C2E2E5C2E2EFC
:10EBE0005C6D61696E2E630038B51B4800F058FB00
:10EBF00020BB1A48007848B119484069E8B10020A4
:10EC00000090174841696846884716E01548007823
:10EC100010B91348456801E011488568002229466B
:10EC200011480068FEF782FF044634B10C48806941
:10EC300018B10B4881692046884709E008484069B7
:10EC400030B101200090064841696846884700BFFE
:10EC500000200249087038BD602000206820002094
:10EC6000782600205C200020DC1B020010B5012269
:10EC700000210846FFF756FE044600BF1CB1072CD2
:10EC800001D0204610BD00BF072202210120FFF75E
:10EC900049FE044600BF1CB1072C01D02046F1E715
:10ECA00000BF042202210020FFF73CFE044600BF03
:10ECB0001CB1072C01D02046E4E700BF0020E1E7AB
:10ECC00070B594B00626214800680590204804904D
:10ECD0000E20ADF80C004FF6AA60ADF80000DDE99B
:10ECE0000301CDE90101382106A8FDF736FC00201B
:10ECF0008DF818008DF81B600120ADF8280005A9DB
:10ED00000B91CDF840D08DF84400002106A8FFF704
:10ED10008DF8044600BF25463DB100BF0DA240F26C
:10ED20000B312846FEF701FE00BF00BF18210D4839
:10ED3000FDF713FC03200B4908700020486008729F
:10ED4000A02008820020488214B070BDD81B0200A9
:10ED5000F11F00202E2E5C2E2E5C2E2E5C6D616924
:10ED60006E2E63002021002070B5104873DF04462A
:10ED700000BF25463DB100BF0DA240F21F3128461D
:10ED8000FEF7D3FD00BF00BF0220FFF7D0FD044611
:10ED900000BF25463DB100BF05A240F22231284602
:10EDA000FEF7C3FD00BF00BF70BD000020210020A2
:10EDB0002E2E5C2E2E5C2E2E5C6D61696E2E6300F5
:10EDC000014614480078144A127890421DD0114828
:10EDD0000078401C0F4A107010460078022801D1BC
:10EDE000002010700D480B4A127850F8220008607D
:10EDF0000B4A086812681044094A106010460068FF
:10EE000020F07F401060012070470020086000BFA4
:10EE1000FAE70000C0200020C1200020B820002018
:10EE2000B42000200A48007806280ED10848001DAA
:10EE3000007800F00F0040B905480830007800F075
:10EE4000F000302801D1012070470020FCE70000CD
:10EE5000E00F00F013480078062820D11148001D6B
:10EE6000007800F00F00D0B90E480830007800F0AC
:10EE7000F000302801D1012070470A48083000789E
:10EE800000F0F000402801D10120F5E705480830E6
:10EE9000007800F0F000502801D10120ECE70020BC
:10EEA000EAE70000E00F00F00A48007806280ED1DB
:10EEB0000848001D007800F00F0040B905480830F0
:10EEC000007800F0F000302801D1012070470020C8
:10EED000FCE70000E00F00F013480078062820D17E
:10EEE0001148001D007800F00F00D0B90E4808301E
:10EEF000007800F0F000302801D1012070470A4866
:10EF00000830007800F0F000402801D10120F5E73A
:10EF100005480830007800F0F000502801D10120A9
:10EF2000ECE70020EAE70000E00F00F00A48007874
:10EF300006280ED10848001D007800F00F0040B9E7
:10EF400005480830007800F0F000302801D1012099
:10EF500070470020FCE70000E00F00F00A4800784E
:10EF600006280ED10848001D007800F00F0040B9B7
:10EF700005480830007800F0F000302801D1012069
:10EF800070470020FCE70000E00F00F00A4800781E
:10EF900006280ED10848001D007800F00F0040B987
:10EFA00005480830007800F0F000502801D1012019
:10EFB00070470020FCE70000E00F00F0F0B50346CA
:10EFC00000241FE0124E306806689E4203D906688E
:10EFD000F61A06601AE006689B1B06683444002691
:10EFE00006600B4E35680A4FC6693E60C66846B17A
:10EFF0000E1926F07F464660C66886601668C661B0
:10F00000156000BF024800680028DBD100BFF0BDDA
:10F01000B020002070B504460D462A460021204647
:10F0200000F00EF8A068401CA06070BD01468A6820
:10F03000C868801A704701468A68C868801A704795
:10F0400010B583680B44848823400468E35C137024
:10F0500010BDC26883881A4003689954C268521C64
:10F06000C260704730B504461088C01C984201D970
:10F070000C2030BD0220158848551088401C108097
:10F080000120158848551088401C108015884C5563
:10F090001088401C10800020EBE738B5002000905D
:10F0A000684601F011FB0446082C02D00CB1012087
:10F0B00038BD082C06D1684600F014F804460CB19F
:10F0C0000020F5E7009808B10120F1E70020EFE704
:10F0D00038B504468DF8000069460320ABBE2046D3
:10F0E00038BD0000014609B9032070470248406D51
:10F0F00008600020F9E70000D42800203EB500BFDA
:10F100009DF8000020F00F00401C00909DF80000CA
:10F1100020F0F0001030009000BF082216A16846D1
:10F120007CDF044600BF254635B100BF15A2C221D1
:10F130002846FEF7FAFB00BF00BF002001900290B6
:10F140001020ADF804003C20ADF806000020ADF81A
:10F1500008004FF4C870ADF80A0001A87ADF044631
:10F1600000BF254635B100BF06A2CC212846FEF7D8
:10F17000DCFB00BF00BF3EBD424C452043756265CD
:10F18000000000002E2E5C2E2E5C2E2E5C6D616920
:10F190006E2E6300F8B52548007800B9F8BD244804
:10F1A000006808B9012000E00020054621480068F9
:10F1B00008B9012000E00020064600BF9DB968465E
:10F1C00052DF0446052C01D101250BE034B100BF0C
:10F1D000194A93212046FEF7A8FB03E01449009842
:10F1E0000968884700BFCEB9144800880090694676
:10F1F0001348006861DF0446052C01D101260CE0AC
:10F2000034B100BF0C4AB2212046FEF78EFB04E069
:10F210000B48006807490968884700BF0DB106B16F
:10F2200000E0CBE700BF00BFB8E70000D42000201B
:10F23000E4200020E0200020401C0200DC20002010
:10F24000D82000202DE9F04704460E4690460027BE
:10F2500022E0384601F00EF80546384601F011F874
:10F2600081462046294642580AB1012200E0002288
:10F2700082B14846D4F80413014009B1012100E0ED
:10F28000002139B12946204601F000F82846D6E988
:10F2900000219047781CC7B24745DADBBDE8F0870C
:10F2A00001464888064A1288904206DB4888044A8C
:10F2B0005288904201DC012070470020FCE70000EA
:10F2C0005420002030B504461088C01C984201D953
:10F2D0000C2030BD0220158848551088401C108035
:10F2E0001C20158848551088401C1080012C06D021
:10F2F000022C08D0032C0AD0042C10D10BE00020E3
:10F30000158848550DE001201588485509E0022070
:10F310001588485505E003201588485501E0072069
:10F32000D7E700BF1088401C10800020D1E7000004
:10F330002DE9F0412148D0F80080214806782FE0DF
:10F340002048006800EBC604257825E005EB450160
:10F35000606800EBC107681CC5B2A078A84200D164
:10F3600000253878022802D0032812D103E07868FB
:10F3700001F0D2FE0EE007E0104908680021017498
:10F380000E4AC169116000BF0C4800680028F3D123
:10F3900000E000BF00BF00BF6078A842D6D100BF28
:10F3A000301EA6F10101CEB2CAD104480068404522
:10F3B00002D00120BDE8F0810020FBE7B020002052
:10F3C000A8200020AC2000202DE9F04706463B484D
:10F3D000D0F800903A48077861E03A48006800EBBE
:10F3E000C70555E016B13446E66923E02A7802EBFA
:10F3F0004202696801EBC2002978491C297029780A
:10F40000AA78914201D1002129704468017801292C
:10F4100001D1217C01B13BE081686160C168A160DC
:10F420000169E1604169A1612749097809B10021B9
:10F43000616000BF254960680968401A20F07F407C
:10F440002349884208D221496068096801F0C5FD56
:10F45000A1680844206010E01C486168006801F061
:10F46000BCFD8046A068404504D9A068A0EB080018
:10F47000206001E00020206000BF00206060A060EC
:10F48000012020740020E061204601F011FE00BF41
:10F49000002EA7D1287869788842A3D100BF381EF2
:10F4A000A7F10101CFB298D104480068484502D0C5
:10F4B0000120BDE8F0870020FBE70000B02000201D
:10F4C000A8200020AC200020C9200020B42000206B
:10F4D000FFFF7F0008B50F48007808B1002008BD85
:10F4E000012083020C4A0DA100900020FDF776FA5E
:10F4F00008B10820F3E7002010230A4A0AA100906F
:10F50000FDF722FA08B10820E9E701200149087057
:10F510000020E4E7CA2000202C2900204E6F726DE5
:10F52000616C00002C2D0020496E70757400000085
:10F530000FB438B5044606A800906A4620460599DF
:10F54000FDF7FFFA0020009038BC5DF814FB0000C6
:10F5500001200849087300210648017441740168BC
:10F560004FF47A70414303484161816881610C30F6
:10F5700070470000B426002010B500F04FF8044694
:10F5800001201E4908601E481E4908601E48091DCA
:10F59000086040F203101B492031086040F25B60B4
:10F5A000091D0860012017491C3108600320174914
:10F5B00008601449091F086096201249303108601C
:10F5C00010201349C1F804038E200E491031086041
:10F5D00010480C49083108600F480A492831086072
:10F5E000084810380460012001218140420992003E
:10F5F00002F1E022C2F8001100BF10BDFC1F004064
:10F60000060102001415004025000302001200400C
:10F610000010004000D6BE895555550070B5002435
:10F6200002203B4908552246641C5018017841F0DD
:10F630004001017000222146641C35484254254691
:10F640000021641C415501193248C2690A60008CCE
:10F650008880A41D02222146641C2D4842540122A8
:10F660002146641C425406222146641C4254032253
:10F670002046611CCCB226490A542046611CCCB2FB
:10F6800023490A54AA222046611CCCB220490A54BC
:10F69000FE222046611CCCB21D490A54002220469D
:10F6A000611CCCB21A490A5426461621601CC4B209
:10F6B00017488155AA222046611CCCB214490A542D
:10F6C000FE222046611CCCB211490A541022204669
:10F6D000611CCCB20E490A54EE222046611CCCB209
:10F6E0000B490A540B4B5B1E9A8D996A084B1819EB
:10F6F000FCF71AFF0748401E90F82C002044C4B2C3
:10F70000601B03494870A01B0874084670BD0000C8
:10F71000E4260020B526002010B50446012C04D0B4
:10F72000022C09D0032C1DD111E0252000F050F847
:10F7300001200E49086016E0262000F049F801205B
:10F740000B49C8604FF4C8700A4908600BE02720D5
:10F7500000F03EF801200649C8604FF4C870054922
:10F76000086000E000BF00BF10BD000000100040B6
:10F77000008000404085004010B5084908480160FD
:10F780000849001F01608015054950390860FFF7DE
:10F79000F3FE01200149086110BD00000010004087
:10F7A00054F501404081004010B504460020064950
:10F7B000087300210448017444748168416103495D
:10F7C00081610C3051DF10BDB426002040420F0093
:10F7D000252806D102210C4A116025210A4A4C3203
:10F7E0001160262806D11A21074A11602621064AEF
:10F7F0004C321160272806D15021034A116027217D
:10F80000014A4C32116070470815004010B504469B
:10F81000002021494860087014B1022C30D109E061
:10F82000FFF7AAFF00201D49087008460078401C19
:10F8300008702DE01A480068012820D100201849DE
:10F84000086016480078FFF767FF1448007804281E
:10F8500010D18001134908601348007930B1FFF7D7
:10F8600077FE0D4948600320087002E002200A4933
:10F8700008700DE009480078401C0849087007E04E
:10F880000948406A18B10848416A0820884700BF03
:10F8900000BF014810BD00006C2000207420002033
:10F8A0001011004008F50140B426002008B500BF43
:10F8B0000023754A05211846FEF7DCF8054600BF0F
:10F8C0002E463EB100BF71A240F25B313046FEF7DA
:10F8D0002CF800BF00BF00BF70480078C8B10022FC
:10F8E00040F6CD410120FFF725F8044600BF25462C
:10F8F0003DB100BF65A24FF458712846FEF715F8D8
:10F9000000BF00BFFEF7DEFEFFF7DAF9FFF72CFAC3
:10F910002BE06248007840BB01F09EFE6846FFF78E
:10F9200025F8FEF7CFFEFFF7E9FB01F04FF9FDF7F1
:10F9300001FFFFF721F90320FEF740FC044600BF5A
:10F9400025463DB100BF51A240F27A312846FDF76D
:10F95000ECFF00BF00BF01F0B5FC01F05BF9EE2247
:10F960001146104601F0A7F900BF00BF4B480078D0
:10F970000028FBD14A48007830B1022049498871FB
:10F9800008224948FEF773FE082000F023FC58B116
:10F99000464801780820FEF7D5FF4449087008461C
:10F9A0000078404908704EE0072000F013FC58B181
:10F9B0003F4801780720FEF7C5FF3D49087008461B
:10F9C0000078384948703EE00A2000F003FC58B146
:10F9D000384801780A20FEF7B5FF36490870084616
:10F9E0000078304988702EE0092000F0F3FB58B110
:10F9F000314801780920FEF7A5FF2F490870084615
:10FA000000782849C8701EE00C2000F0E3FB58B1D4
:10FA10002A4801780C20FEF795FF2849087008460F
:10FA20000078204908710EE00B2000F0D3FB50B1A4
:10FA3000234801780B20FEF785FF2149087008460E
:10FA40000078184948711F4B1C4D2D785B5D1E4D89
:10FA50001B4E3678AD5D2B44DAB21A4B154D2D781E
:10FA60005B5D194D144E3678AD5D2B44D9B2154B04
:10FA70000E4D2D785B5D144D0D4E3678AD5D2B44EB
:10FA8000D8B201F018F971E7AC2300202E2E5C2EBD
:10FA90002E5C2E2E5C6D61696E2E6300FF1F0020B0
:10FAA000F01F002008200020F0200020102000205F
:10FAB00011200020122000201320002014200020FC
:10FAC00015200020172000201E2000202DE9F041E5
:10FAD00005460E4614469846A888871C2088801C38
:10FAE0003844404502D90C20BDE8F081FE2F01D9F1
:10FAF0000C20F9E7781C218870542088401C208055
:10FB0000FF20218870542088401C20802288911971
:10FB1000288801F01FFF218808442080A888002839
:10FB20000DDDA86808B90720DEE7AA8823889819A0
:10FB3000A968FCF7F9FC2088A988084420800020E7
:10FB4000D2E72DE9F84F05460F4614469846287827
:10FB5000012804D1687810B90720BDE8F88F208803
:10FB6000801C404508D82878012807D12088801CAF
:10FB700069780844404501D90C20EEE72088A8EBBD
:10FB80000000801E86B200962188891CC81969462B
:10FB90007DDF814600BFB9F1000F01D04846DCE7A8
:10FBA00000BF2878022806D1BDF80000B04202DC70
:10FBB0004FF0090A0BE04FF0080A2878012805D118
:10FBC0006878B04202DC6878009000E00096BDF8EA
:10FBD0000000FE2801D90C20BFE7BDF80000401C42
:10FBE000218878542088401C2080208807F800A0B5
:10FBF0002088401C20802088BDF800100844208008
:10FC00000020AAE701B506E00098401E009040F2EF
:10FC1000E730FCF7FFFB00980028F5D108BD000095
:10FC200070B50B4601461A46002907DA5407260E1E
:10FC3000104C01F00F052D1F665503E05407250EEB
:10FC40000D4C655400BF00BF00F01F020121914020
:10FC50000A4A440942F8241000BF00BF00F01F0206
:10FC6000012191404209920002F1E022C2F8001104
:10FC700000BF70BD18ED00E000E400E080E200E0AD
:10FC800070B504460D463148C07E08B1082070BDED
:10FC900004B92F4C607F2D4908772046FEF754F8B1
:10FCA0002A4845602949206908600846406880B3B1
:10FCB000267F0846007FC0B14FF48871254800F0C8
:10FCC00021FB4FF49071234800F01CFB4FF492711C
:10FCD000204800F017FB4FF4A2711E4800F012FB01
:10FCE0001D491C4800F01AFB0DE04FF48E711948B5
:10FCF00000F0DCFA4FF4A271164800F0D7FA174969
:10FD0000144800F0DEFA31460220FFF789FF00BFF9
:10FD100000BF00BF0D48007F28B100BF0820104978
:10FD2000086000BF05E000BF04200D49086000BF67
:10FD300000BF00BF00200549C875087688750120FE
:10FD4000C8760020887600BFA1E700008427002045
:10FD5000101C02000020004010030200800002007E
:10FD60000025004070B504460D462848007F30B19C
:10FD7000200C0004B0F1005F01D0102070BD0026FF
:10FD80002248406868B12148007F28B14FF40471CF
:10FD90001F4800F0C0FA04E04FF401711C4800F065
:10FDA0008DFA1A48C07DB0B11848007E90B117484E
:10FDB000406868B11548007F28B14FF404711448B9
:10FDC00000F0ACFA04E04FF40171114800F079FA48
:10FDD0001120D3E701263EB90C48C575C460002048
:10FDE0000A494876087602E0084804610576074823
:10FDF000007F28B132462946204600F075F8BDE75D
:10FE000032462946204600F015F8B7E7842700203F
:10FE10000020004010B50648007F38B90448807EB5
:10FE200020B900F0A9FD01200149887610BD00002D
:10FE3000842700202DE9F047804689461646284849
:10FE4000807E10B90EB900F097FD25484068002863
:10FE50003FD14FF4A271234800F028FA00BF00BF41
:10FE60004FF492711F4800F01AFA05464FF484715E
:10FE70001C4800F014FA07464FF4A271194800F02C
:10FE80000EFA044617B90CB9002DE9D005B904B132
:10FE900007E000F09BFC1248C07D1149497E884272
:10FEA000DDDC00BF00200E49C87515B10320BDE898
:10FEB000F0870CB10F20FAE70948807E20B10021BD
:10FEC000084800F00AFA03E00421064800F005FAA9
:10FED00004E04FF40171034800F0F3F90020E6E775
:10FEE00084270020002000402DE9F04704460D46FD
:10FEF00090464FF48871264800F004FA4FF4A2713E
:10FF0000234800F0FFF92248C0F834454FF4A761B8
:10FF10000D5000BFB8F1000F03D1002100F006FA28
:10FF200008E020201B4909680143194AC2F8001261
:10FF300000BF00BF1848406818BB00BF4FF488716D
:10FF4000134800F0D8F981464FF4A271104800F030
:10FF5000D2F907464FF492710D4800F0CCF90646ED
:10FF6000B9F1000F02D10FB9002EE7D000200A49E5
:10FF7000C87516B10320BDE8F0870FB10F20FAE76E
:10FF800004E04FF40471024800F0C8F90020F2E7E1
:10FF900000200040002200408427002070B5044665
:10FFA0000D460F48007F30B1200C0004B0F1005F17
:10FFB00001D0102070BD00F093F808B11120F9E7CE
:10FFC0000748857584600020054988820846007FBF
:10FFD00010B100F04DF8EDE700F004F8EAE700009A
:10FFE0008427002010B500244FF48E711E4800F0C5
:10FFF0005DF908211C4800F070F901F0ABF91B48CD
:020000040002F8
:10000000406878BB12E000BF4FF48E71164800F0D4
:1000100046F920B91548808AB0F5807FF4D113489D
:10002000808AB0F5807F01D001F094F90F48808A72
:100030000E49897D8842E6DB0C48808AB0F5807FD6
:1000400001D10F240BE000BF4FF48E71064800F081
:1000500026F90028F8D00C21034800F03EF90020D2
:1000600002498875204610BD0020004084270020EA
:1000700070B500264FF49071174800F043F94FF423
:10008000AC71154800F03EF91348144B99689A7DFD
:10009000C0F844154FF4A9631A5000BF082100F0BE
:1000A00045F90E484068A8B900BF4FF490710A485E
:1000B00000F021F905464FF4AC71074800F01BF938
:1000C00004460DB9002CF0D004B10F2600200349DE
:1000D000887500BF304670BD002000408427002096
:1000E0000348807D08B1012070470020FCE7000034
:1000F00084270020F0B5DDE9054541EA420646EADD
:10010000830646EA042646EA0547024E46F8207072
:10011000F0BD000000070050F0B5DDE9054541EAFB
:10012000420646EA830646EA042646EA0547024EA8
:1001300046F82070F0BD0000000700507CB5054671
:100140000C460020009023460246014601902846B6
:10015000FFF7D0FF7CBD7CB505460C460020009023
:1001600023460246014601902846FFF7D5FF7CBD95
:100170001CB5044600200090034601221146019060
:100180002046FFF7B7FF1CBD1CB5044600200090B9
:1001900003460122114601902046FFF7BDFF1CBD1A
:1001A000074A52F8202022F44033054A42F8203012
:1001B00052F8202042EA0143014A42F820307047B9
:1001C0000007005001218140014A11607047000082
:1001D0000C050050014603480068C84000F00100CB
:1001E000704700001005005001218140014A116054
:1001F000704700000805005001218140014A11604C
:100200007047000008050050014601480844704747
:100210000060004038B504462046FFF7F5FF002196
:1002200001602046FFF7F0FF0068009000BF38BD76
:1002300010B504462046FFF7E7FF0068012800D10B
:1002400010BD0020FCE7000001460348085808B133
:10025000012070470020FCE7007000400021014AA7
:1002600081507047007000400121014A8150704761
:100270000070004001464FF4A07000EB810080B296
:10028000704701464FF4803088407047002242504A
:1002900070470146D1F88004C1F8800470470246D7
:1002A000505808B1012070470020FCE7002242505E
:1002B0007047C0F80815C0F810257047C0F808133B
:1002C0007047C0F8041370470246D2F80403084090
:1002D00008B1012070470020FCE70122425070471E
:1002E000C0F80C15C0F8142570470146D1F88004F9
:1002F000C1F8800470470246505808B10120704789
:100300000020FCE7002242507047C0F808154FF467
:10031000A2631A507047C0F808137047C0F804135E
:100320007047014640F23C5040587047012242500D
:10033000704740F20C53195040F214531A50704752
:100340002DE9F04106460D461746297823A0FDF712
:1003500011F8002438E000BF285DFDF7AFFC00284D
:10036000FAD1285D204908550846C079022812D1E3
:1003700000201E4908701E4908701E4908701E4959
:1003800008701E4908701E4908701E49C87188719E
:100390001D49087009E01448C079012805D10020E2
:1003A0001849C8718871184908700F488079012868
:1003B00009D10D4800781249087000201149887150
:1003C000094800780870641C082CC4D300BF0A20B8
:1003D000FDF774FC0028FAD1BDE8F0815541525474
:1003E0003A20256400000000002000201520002095
:1003F00014200020132000201220002011200020B3
:100400001020002008200020F01F002070B50546B5
:1004100095B1032D13D10220FEF789FA044600BFDF
:1004200026463EB100BF07A24FF4B0713046FDF73B
:100430007CFA00BF00BF03E000F076FC00E000BFE4
:1004400000BF70BD2E2E5C2E2E5C2E2E5C6D616961
:100450006E2E630070B505462888102806D0112836
:1004600018D013282BD0522851D13CE00720FEF79A
:100470005EFA044600BF26463EB100BF25A240F208
:1004800077113046FDF751FA00BF00BFA888254913
:1004900008803DE00020FEF74AFA044600BF2646E9
:1004A0003EB100BF1BA240F27D113046FDF73DFA80
:1004B00000BF00BF4FF6FF701A49088028E00023F4
:1004C0001A468521174800887FDF044600BF26466C
:1004D0003EB100BF0FA24FF4C2713046FDF725FABE
:1004E00000BF00BF14E000231A4619460D480088DB
:1004F000A9DF044600BF26463EB100BF05A24FF467
:10050000C5713046FDF711FA00BF00BF00E000BF23
:1005100000BF70BD2E2E5C2E2E5C2E2E5C6D616990
:100520006E2E6300EA1F002070B50546287880B95A
:100530003B210848008876DF044600BF26463EB1CE
:1005400000BF05A24FF48E713046FDF7EEF900BFF3
:1005500000BF70BDEA1F00202E2E5C2E2E5C2E2EBA
:100560005C6D61696E2E630010B504460349A26894
:100570000A60E0684860FEF737FB10BD602000208D
:1005800010B50446A088084908800849A2690A6095
:10059000E06948600020064908700648C08908B92B
:1005A000FEF722FB10BD00005E200020602000202E
:1005B0005C200020782600208A8882827047000014
:1005C00070B505464FF6FF700949088000200949BB
:1005D000087009480068FDF7D5FA044634B10748A9
:1005E000806918B1054881692046884770BD0000C0
:1005F0005E2000205C200020DC1B0200782600200A
:100600004FF6FF728282704770B50546AC1D208898
:100610001149C98988421DD1608902281AD100BFB9
:1006200000BF217B627B41EA0221084600F0010104
:1006300011B1FEF7D9FA0DE008480068FDF7A2FAFB
:10064000064636B10448806918B1034881693046CE
:10065000884700BF70BD000078260020DC1B020028
:1006600070B504460E46B51D2988208A814212D1F4
:10067000688902280FD100BF00BF297B6A7B41EA4D
:100680000221084600F0010111B10120A0750EE021
:100690000020A0750BE02888A188884207D1A069B6
:1006A00028B16A8905F10C012046A369984770BDFD
:1006B0000246002104E0505C08B101207047491C4B
:1006C0000629F8D30020F9E7014600BF0748007863
:1006D00000F0040008B90820704700BF09B90E20D7
:1006E000FAE70348407808600020F5E7A4200020DE
:1006F000A42700204FF0005000BF0249096889027A
:10070000084470470C010010014908607047000060
:100710004015014001480068704700000415014081
:1007200010B504460348046006211120FCF752F876
:1007300010BD00000815014010B54FF480300A4983
:1007400008600A49C1F804031120FCF71FF81120C2
:10075000FCF728F80120054908602F20FBF796FEDA
:1007600001200349087010BD4413014000100140EE
:10077000C820002010B51120012181400E4A4309F4
:1007800042F8231000BF4FF480300C4908600C4938
:10079000C1F80803012048602F20FBF777FE0120F5
:1007A000074988600020074908602F20FBF76EFE8C
:1007B00000200549087010BD80E100E048130140A9
:1007C00000100140B4200020C820002010B51048BF
:1007D000C07D40B94FF484710E48FFF767FD00BF3C
:1007E0000D48006810BD4FF484710A48FFF75EFDA4
:1007F00000BF09480068C0B20549C968044A527E72
:1008000088540348407E401C0149487600BFE9E710
:1008100084270020002000401825004030B58FB00C
:1008200004460D460020079000BF9DF81C0020F0F4
:100830000F00401C8DF81C009DF81C0020F0F000FB
:1008400010308DF81C0000BF00BF9DF81D0020F087
:100850000F00401C8DF81D009DF81D0020F0F000D9
:1008600010308DF81D0000BF9DF81E0020F006001E
:10087000801C8DF81E001C2108A8FBF76EFE9DF859
:10088000200020F0100010308DF82000002009908A
:100890000B900C9007A80D9000200E9020788DF8FA
:1008A000060042F20100ADF804000020009000BFF5
:1008B0009DF8000020F00F00401C8DF800009DF80E
:1008C000000020F0F00010308DF8000000BF00BFE5
:1008D0009DF8010020F00F00401C8DF801009DF8EC
:1008E000010020F0F00010308DF8010000BF9DF8ED
:1008F000020020F00600801C8DF802009DF8020026
:1009000020F008008DF802009DF8020020F0100091
:100910008DF802009DF8020020F00100401C8DF8C7
:100920000200142102A8FBF718FE01A80290CDF8DE
:100930000CD00120ADF810000020ADF812001420FA
:10094000ADF81400608804F10C0302AA08A9A2DF24
:100950000FB030BD7FB504460D4601208DF8000074
:100960008DF8084001950348016842686846904741
:100970007FBD00008427002010B54FF49271064817
:10098000FFF794FC4FF484710348FFF78FFC0021BC
:100990000148FFF7A2FC10BD0020004038B5044616
:1009A0000B4800900098A04210D0FFF7A3FE054628
:1009B000234608A10020009AFEF7BAFD2D1B2A4607
:1009C00011A10020FEF7B4FD002038BD0020FCE797
:1009D000E81F002052414D205354415254204144BD
:1009E000445220307825782073686F756C642062DB
:1009F000652061646A757374656420746F20307853
:100A000025780D0A0000000052414D2053495A45F7
:100A10002073686F756C642062652061646A757309
:100A200074656420746F2030782578200D0A0000EA
:100A300010B501460846202808DA012282402C4BD6
:100A40001A400AB101220EE000220CE0402809DA27
:100A5000A0F12002012303FA02F20AB1012202E00E
:100A6000002200E0012212B942F2010010BD0A4644
:100A7000002A06DA1F4B02F00F04241F1B5D5B09DE
:100A800002E01D4B9B5C5B091846082801D300223D
:100A900009E028B1012803D0042801D0052801D19C
:100AA000002200E0012212B942F20200DEE7134800
:100AB000806868B14809114A52F8200001F01F030C
:100AC00001229A4010434A090C4B43F822000CE0E3
:100AD00000BF01F01F02012090404A09920002F17C
:100AE000E022C2F8000100BF00BF0020BEE7000006
:100AF000FC06FFBC18ED00E000E400E0D03100206F
:100B000030B504461088C01C984201D90C2030BD75
:100B10000220158848551088401C10801120158827
:100B200048551088401C108010880C541088401CB8
:100B300010800020EBE72DE9F04707460E461446EB
:100B40009A46B86A10B90720BDE8F0874FF0000850
:100B500036E008EB4801B86A00EB8105A88800F18F
:100B60000209B9F1FE0F01D90C20EDE709F10100EE
:100B7000218870542088401C2080162021887054C1
:100B80002088401C208022889119288800F0E2FEED
:100B9000218808442080A88800280DDDA86808B9AD
:100BA0000720D1E7AA8823889819A968FBF7BCFC1D
:100BB0002088A9880844208008F1010000F0FF087F
:100BC00097F82C004045C4DC0020BDE738B5002074
:100BD00000900A48009069460948FDF7DBFC04468E
:100BE00000BF25463DB100BF06A24FF484712846E0
:100BF000FCF79BFE00BF00BF38BD000041030200B0
:100C0000F02000202E2E5C2E2E5C2E2E5C6D616955
:100C10006E2E630010B50020FFF7B6FA0120FFF733
:100C2000B3FA0220FFF7B0FA0320FFF7ADFA042071
:100C3000FFF7AAFA0620FFF7A7FA0520FFF7A4FAA4
:100C400001210820FFF787FA01210720FFF783FA27
:100C500001210A20FFF77FFA01210920FFF77BFA23
:100C600001210C20FFF777FA01210B20FFF773FA1F
:100C70000620FFF7C1FA0520FFF7A4FA10BD10B552
:100C80000320FFF7B9FA0120FEF7BCFF0320FFF7AE
:100C900099FA0120FEF7B6FF10BD10B50420FFF74A
:100CA000ABFA0120FEF7AEFF0420FFF78BFA01201C
:100CB000FEF7A8FF10BD2DE9F04104460D4616468B
:100CC00000272AE004F0800018B10020FFF77AFA2C
:100CD00005E004F0800010B90020FFF78DFA05F060
:100CE000800018B10120FFF76DFA02E00120FFF744
:100CF00083FA06F0800018B10220FFF763FA02E0E1
:100D00000220FFF779FAFFF7C8FF6006040E6806B5
:100D1000050E7006060E781CC7B2082FD2DBFFF74F
:100D2000AEFFBDE8F081000070B50020FDF7FFFDCB
:100D3000044600BF25463DB100BF13A240F2471153
:100D40002846FCF7F2FD00BF00BFFDF79BFD0446FF
:100D500000BF25463DB100BF0BA240F24B11284613
:100D6000FCF7E3FD00BF00BF3CDF044600BF2546A3
:100D70003DB100BF04A240F24F112846FCF7D5FD5B
:100D800000BF00BF70BD00002E2E5C2E2E5C2E2EEC
:100D90005C6D61696E2E6300014600BF09B90E20CB
:100DA000704700BF014801600020F9E7E020002003
:100DB0007CB50646154800900098019014A10020CB
:100DC000019AFEF7B5FB01A9304660DF0446DDE974
:100DD000001088420FD0FFF78DFC054615A10020BA
:100DE000019AFEF7A5FB01982D1A2A4620A10020A2
:100DF000FEF79EFB07E034B1224627A10020FEF754
:100E000097FB00BFFEE720467CBD0000E81F0020E6
:100E100073645F626C655F656E61626C653A2052F7
:100E2000414D20535441525420617420307825782C
:100E30000D0A000073645F626C655F656E61626CD1
:100E4000653A206170705F72616D5F6261736520E9
:100E500073686F756C642062652061646A75737471
:100E6000656420746F20307825780D0A000000003A
:100E700072616D2073697A652073686F756C642088
:100E800062652061646A757374656420746F2030D4
:100E9000782578200D0A000073645F626C655F65D9
:100EA0006E61626C653A206572726F7220307825CF
:100EB000780D0A0070B505460E46144614212046EA
:100EC000FBF74BFB012020800021216100202073D3
:100ED00026726572607A08B10121A172002070BD8E
:100EE00070B504460D461646324629462046FCF7A4
:100EF0000FFD70BD2DE9F04180460C4616461F4699
:100F0000FEF7E8FA14B90720BDE8F081204600F0AA
:100F1000030109B9012100E0002109B90720F3E725
:100F200009480460094806800948076009494046A5
:100F300010DF05460DB12846E6E701200649087096
:100F40001620FFF775FDDFE7D8200020DC20002009
:100F5000D0200020E10E0200D4200020014600BF76
:100F600009B90E20704700BF014801600020F9E771
:100F7000E42000200146C87808B10720704700200F
:100F8000FCE77CB5044601A90020FDF789FC054675
:100F900000BF0DB128467CBD00BF69460120FDF7AA
:100FA0007FFC054600BF0DB12846F4E700BF9DF861
:100FB000000010B10220207007E09DF8040010B17D
:100FC0000B20207001E0002020700020E3E710B526
:100FD00004462046FCF71EFC10BD0246501A20F0C5
:100FE0007F40704770B504460C48006890B10B4ACA
:100FF000D4E9050112689047054600BF2E463EB170
:1010000000BF07A240F265113046FCF78EFC00BF1E
:1010100000BF02E0D4E90510884770BDC42000205D
:101020002E2E5C2E2E5C2E2E5C636F6D706F6E65A7
:101030006E74735C6C69627261726965735C746909
:101040006D65725C6170705F74696D65722E6300AE
:101050002DE9FC41002001900F4804680F48076803
:101060006846FDF7ADFE0546FEF762F906462DB16E
:1010700001AA21460098FDF7A1FF01260198FEF77D
:10108000A3F900B1012616B13846FDF7B7FC0020E0
:1010900003490870BDE8FC81B4200020B020002086
:1010A000C920002010B51420FBF788FB10BD0000FC
:1010B00010B51849096811B91649086028E0154AA1
:1010C00001681268126891420DD8124909680968CE
:1010D0000268891A0F4A126811600E490968C161D5
:1010E0000C49086014E002680A4C2368216803E098
:1010F0000C68121B0B46C96911B10C689442F7D3F6
:1011000011B10C68A41A0C600260C161D86100BF03
:1011100010BD0000B020002030B50246154C2168FB
:10112000084604E0904200D103E00146C06900286F
:10113000F8D100BF00B930BD814210D10D4C2468F8
:10114000E4690C4D2C602C46246844B901240A4DF6
:10115000AC600024094D2C600124094D2C700368FB
:10116000C469CC61C86910B104681C44046000BF44
:10117000E1E70000B020002000100140B420002072
:10118000C92000202DE9F84305460E46174698462B
:10119000DDF820901149096801EBC500694600F0AF
:1011A00053FC044614B90420BDE8F88301202070E4
:1011B0006660FFF7AFFAA060E760C4F81080C4F87B
:1011C00014900649096801EBC5009DF8001000F075
:1011D00053FCFFF767FF0020E6E70000AC2000208B
:1011E000F8B504460E460D49096801EBC40069468E
:1011F00000F02AFC05460DB90420F8BD0220287035
:101200006E600649096801EBC4009DF8001000F00B
:1012100033FCFFF747FF0020EFE70000AC20002081
:101220002DE9F0411F480068002838D00027FFF75B
:1012300071FA80461C4801684046FFF7CEFE06461C
:101240001848056810E02868B04200D90EE0286808
:10125000361A286807442C46ED69207C20B100200E
:1012600020742046FFF7BEFE002DECD100BF0F48D2
:1012700000780F490978884209D10D480078401C50
:10128000C0B20B490870022801D10020087009483B
:101290000749097840F82170FFF704FF00BFBDE857
:1012A000F0810000B0200020B4200020C0200020E9
:1012B000C1200020B820002010B51120FBF77EFAD5
:1012C00010BD000010B54FF4B4700D4908600D4812
:1012D00048600E2008810C48486101F10A0071DF66
:1012E00004460CB1204610BD0548C07A401CC1B26E
:1012F0000348C172FCF764FAFCF7D2FA0020F2E767
:1013000094230020F11F002005DE010070B5044683
:101310001D4610881230A84201D90C2070BD112042
:10132000168888551088401C108010201688885513
:101330001088401C10800F2307E0E05C1688885559
:10134000581E43B21088401C1080002BF5DA002094
:10135000E4E7000010B54FF48E710948FEF7A6FFD0
:10136000084880680749898A445C0648808A401C8E
:101370000449888220460449086000BF10BD00006F
:1013800000200040842700201C25004030B58FB08D
:1013900004460D461C2108A8FBF7DFF89DF8200045
:1013A00020F0080008308DF820009DF8200020F083
:1013B0000400001D8DF82000002009900B900C9077
:1013C0000D900E9020788DF80A004FF40050ADF883
:1013D00008000020019000BF9DF8040020F00F00DD
:1013E000401C8DF804009DF8040020F0F00010303F
:1013F0008DF8040000BF00BF9DF8050020F00F002D
:10140000401C8DF805009DF8050020F0F00010301C
:101410008DF8050000BF9DF8060020F00600801C36
:101420008DF806009DF8060020F008008DF80600F3
:101430009DF8060020F010008DF806009DF80600CB
:1014400020F00100401C8DF80600142103A8FBF7D2
:1014500084F802A8039001A804900120ADF81400BC
:101460000020ADF816001420ADF818006088231D88
:1014700003AA08A9A2DF0FB030BD00001FB50446C3
:1014800000208DF800008DF8084006488068019023
:1014900000200449887508460168426868469047FC
:1014A0001FBD00008427002030B504461088C01CF2
:1014B000984201D90C2030BD02201588485510886B
:1014C000401C10800A20158848551088401C108048
:1014D00015884C551088401C10800020EBE7000058
:1014E00070B50546287820B101283AD0022841D1AC
:1014F0002EE02249224A12788818FCF75DFB20482A
:101500000078401C1E49087008460078401E1B49A0
:10151000085C0A2803D01A480078142817DB1848FA
:10152000027816491748FDF7A2F80446082C0BD09C
:1015300000BF26463EB100BF13A240F20D21304647
:10154000FCF7F3F900BF00BF00200D49087012E05E
:1015500000BF0DA240F215216868FCF7E6F900BF54
:1015600009E000BF08A240F219216868FCF7DDF924
:1015700000BF00E000BF00BF70BD00008021002060
:1015800025200020F02000202E2E5C2E2E5C2E2EFA
:101590005C6D61696E2E63007CB504460E46207852
:1015A000012827D1606801782648FCF734FA0546FF
:1015B00045B101208DF8000001956846224909686F
:1015C00088470BE01F48FDF731FD012806D10020B8
:1015D0008DF8000068461C49096888471948FDF7DE
:1015E00025FD18498988884203D801211748FEF74C
:1015F000B9FB25E0207802280CD18DF80000E068C6
:10160000019001211148FEF7ADFB68460E490968BB
:10161000884715E0207898B90D490E48FCF7DAF9AB
:1016200018B901210A48FEF7B9FC0A48FDF7FEFC8B
:1016300030B903208DF800006846034909688847DF
:101640007CBD00000C270020782000207D20002099
:101650007C2000201C27002030B587B0124A07CA22
:1016600004AB07C300BF114800904FF48070019095
:101670000F4802904FF48070039006230D4A69468C
:1016800004A8FCF7B5FA044600BF00BF25463DB1EB
:1016900000BF09A240F23A212846FCF746F900BFF4
:1016A00000BF07B030BD0000C41B02009421002021
:1016B00094220020E11402002E2E5C2E2E5C2E2E91
:1016C0005C6D61696E2E63007FB54FF40071544804
:1016D000FEF7FAFD68B34FF492715148FEF7DFFD53
:1016E00038B34FF492714E48FEF7E0FD4FF40171AC
:1016F0004B48FEF7E3FD4B48807E18B9042148486B
:10170000FEF7EBFD02208DF800004548FEF7C1FD15
:1017100003904448C17D8DF80810C06801900020F6
:101720004049C8750876084601684268684690478F
:101730003CE004213A48FEF7C7FD002836D04FF4BC
:1017400084713748FEF7ABFD00282FD0FFF73EF835
:101750003448C07D3349497E884227D13148007ED4
:1017600080B13048C468457E007E2E49C875084661
:101770000069C86000200876487621462846FFF7B1
:10178000E9F813E02748807E18B904212448FEF7C1
:10179000A4FD4FF401712248FEF790FD002021497D
:1017A000C8750A46D168507EFFF7D4F84FF48E71A1
:1017B0001B48FEF774FDA0B11A48808A1949897D3B
:1017C000884202DAFFF7C6FD0BE04FF48E71144831
:1017D000FEF76CFD1348807D18B11249887DFFF734
:1017E0004DFE4FF4A2710E48FEF759FDB0B14FF413
:1017F000A2710B48FEF75AFD0A48807E18B10021FD
:101800000748FEF76AFD0748C07D38B1002005494A
:10181000C8750A46D168507EFFF79CF87FBD00006E
:1018200000200040842700207FB54FF49271464885
:10183000FEF761FDF0B14FF492714348FEF762FD8F
:1018400002208DF800004048FEF74FFD03903E480F
:10185000FEF767FDC1B28DF808103C48C0680190E2
:1018600000203A49C875087608460168426868460B
:10187000904737E04FF488713348FEF73CFD00286D
:1018800030D04FF488713048FEF73CFD2E48FEF70B
:1018900048FDC4B22D48C07DA04222D12B48007E15
:1018A000B8B12A48C5682020294909688143264AD9
:1018B000C2F8001200BF2548007E2449C8750846BA
:1018C0000069C8600020087629462046FFF742F8E4
:1018D00007E000201D49C8750846C1682046FFF78B
:1018E00039F800BF4FF4A2711748FEF704FD98B114
:1018F0004FF4A2711448FEF705FD1448C07D58B19D
:1019000000201249C8751048FEF70BFDC4B20F48FD
:10191000C1682046FFF71EF84FF490710A48FEF7A1
:10192000EAFC78B14FF490710748FEF7EBFC0748EA
:10193000807D38B1044840F24C510958CCB2204661
:10194000FFF79CFD7FBD00000020004084270020A1
:101950000022004002460A70100A487002207047B8
:1019600038B505461E4800884FF6FF71884235D0CD
:101970001C480078401C1B4908701B48007B0978F4
:1019800088420DDB19491648008875DF044634B1DA
:101990001548806918B114488169204688471DE0C0
:1019A0000020104908701048007C68B13B210C48A9
:1019B000008876DF044634B10B48806918B10A48C4
:1019C00081692046884700BF0748406930B1002040
:1019D0000090054841696846884700BF38BD00004F
:1019E0005E2000205C20002078260020542000206B
:1019F00030B500BF00BFEFF30581C1F3080282B12B
:101A0000A2F1100359B2002906DA0D4C01F00F05BE
:101A10002D1F645D640902E00A4C645C6409E1B254
:101A200000E00F21022902D0062904D101E00020A4
:101A300003E0012001E0022000BF00BF30BD000034
:101A400018ED00E000E400E030B502460B465078A7
:101A5000401CC1B29078884200D1002110788842A1
:101A600001D1002030BD1970557805EB450550684F
:101A700000EBC5042046F5E7417070472DE9FC47AF
:101A80008046894615469A46DDE90A675346022292
:101A900049464046CDE9006700F017F8044600BF0C
:101AA00014B12046BDE8FC8700BF534610222946EA
:101AB0004046CDE9006700F008F8044600BF0CB1CD
:101AC0002046EFE700BF0020ECE72DE9FF5F064668
:101AD0008B4696461D460E9C4FF0000820880390CA
:101AE00000274AE0706800EB870000680190002240
:101AF00002A901A865DF824600BFBAF1000F03D03A
:101B0000504604B0BDE8F09F00BF9DF80800704546
:101B100032D1B8F1000F01D0002000E00220009087
:101B200020889DF808100144009801440F988142D4
:101B300001DD0C20E5E7B8F1000F0AD12088401C38
:101B40002080208805F800B02088401C20804FF0BD
:101B500001082088421902A901A865DF824600BF5A
:101B6000BAF1000F01D05046CBE700BF20889DF8A6
:101B700008100844208000BF7F1C3088B842B1DCC8
:101B8000B8F1000F0DD021880398401C081A1FFAE5
:101B900080F9B9F1FF0F01DD0C20B2E7039805F8D9
:101BA00000900020ADE70146087908B9087B08B12C
:101BB000012070470020FCE7008000400004000086
:101BC000010000070D0E100F0100000000E0D7011A
:101BD0000000000002000100AAFE0100942600207F
:101BE00068F31BA4A8D81A963E45076C0000C3A64C
:101BF00006000000080000000700000005000000CB
:101C000000000000000000000000D60106000000F7
:101C100006000000080000000700000005000000AA
:101C200000000000000000000000D60106000000D7
:101C30003031323334353637383941424344454602
:101C40002E2E5C2E2E5C2E2E5C636F6D706F6E657B
:101C50006E74735C736F66746465766963655C63E8
:101C60006F6D6D6F6E5C736F6674646576696365C6
:101C70005F68616E646C65725C736F6674646576D0
:101C80006963655F68616E646C65722E6300000055
:101C9000B01C0200E81F00200801000094D30100DE
:101CA000B81D0200F0200020F0300000A4D3010095
:101CB0000000FFFF381302000003676F6F2E676C90
:101CC0002F35706B734852000000000000000000C8
:101CD0000000000000000000000000000000010EF5
:101CE00008040C060A02E08040C060A0200000004A
:101CF00000000000000000000000000000000000E4
:101D000000000000000000000000000000000000D3
:101D100000000000000000000000FFFF00000000C5
:101D200000000000000000000000000000000000B3
:101D300000000000000000000000000000000000A3
:101D40000000000000000000000000000000000093
:101D50000000000000000000000000000000000083
:101D60000000000000000000000000000000000073
:101D70000000000000000000000000000000000063
:101D80000000000000000000000000000000000053
:101D90000000000000000000000000000000000043
:101DA0000000000000000000000000000000000033
:081DB0000090D00300000000C8
