:020000040001F9
:10C00000A04F002005C501000DC501000FC50100AE
:10C0100011C5010013C5010015C501000000000095
:10C0200000000000000000000000000017C5010033
:10C0300019C50100000000001BC501001DC501005D
:10C040001FC501001FC50100E1CF01001FC5010090
:10C050001FC501001FC50100A9C5010045C8010099
:10C06000B1CF0100C9CF01001FC501001FC50100EC
:10C070001FC501001FC501001FC501001FC501002C
:10C080001FC5010011C801001FC501001FC5010027
:10C0900021CD01001FC5010029CD01001FC50100F0
:10C0A0001FC501001FC501001FC501001FC50100FC
:10C0B0001FC501001FC501000000000000000000B6
:10C0C0001FC501001FC501001FC501001FC50100DC
:10C0D0001FC501001FC501001FC5010000000000B1
:10C0E0000000000000000000000000000000000050
:10C0F0000000000000000000000000000000000040
:10C10000000000000000000000000000000000002F
:10C11000000000000000000000000000000000001F
:10C40000DFF80CD000F0BEF800480047E5F401006A
:10C41000A04F0020401E00BF00BF00BF00BF00BFF4
:10C4200000BF00BF00BF00BF00BF00BF00BF00BF14
:10C4300000BF00BF00BF00BF00BF00BF00BF00BF04
:10C4400000BF00BF00BF00BF00BF00BF00BF00BFF4
:10C4500000BF00BF00BF00BF00BF00BF00BF00BFE4
:10C4600000BF00BF00BF00BF00BF00BF00BF00BFD4
:10C4700000BF00BF00BF00BF00BF00BF00BF00BFC4
:10C4800000BF00BF00BFC5D170470000401E00BF05
:10C4900000BF00BF00BF00BF00BF00BF00BF00BFA4
:10C4A00000BF00BF00BF00BF00BF00BF00BF00BF94
:10C4B00000BF00BF00BF00BF00BF00BF00BF00BF84
:10C4C00000BF00BF00BF00BF00BF00BF00BF00BF74
:10C4D00000BF00BF00BF00BF00BF00BF00BF00BF64
:10C4E00000BF00BF00BF00BF00BF00BF00BF00BF54
:10C4F00000BF00BF00BF00BF00BF00BF00BFC5D16D
:10C50000704700000648804706480047FEE7FEE700
:10C51000FEE7FEE7FEE7FEE7FEE7FEE7FEE7FEE7F3
:10C5200071CD010001C4010040EA01039B0703D063
:10C5300009E008C9121F08C0042AFAD203E011F862
:10C54000013B00F8013B521EF9D27047D2B201E024
:10C5500000F8012B491EFBD270470022F6E710B508
:10C5600013460A4604461946FFF7F0FF204610BD61
:10C57000034611F8012B00F8012B002AF9D11846C7
:10C5800070470000064C074D06E0E06840F00103EC
:10C5900094E8070098471034AC42F6D3FFF734FF15
:10C5A000201F0200401F02002DE9F04F87B0002736
:10C5B000BA464FF4807006900125002412E00698D8
:10C5C00003F000FD40B100BF60480068284018B18A
:10C5D000069803F0E9FC2F436D000698001D80B219
:10C5E0000690641C082CEAD34FF4BE7003F0EAFCFA
:10C5F00048B14FF4BE7003F0D7FC47F0004700BFCE
:10C60000534800688246F8B2F8B1012500241AE0C8
:10C6100005EA0700A8B100BF4E4850F82400C0F357
:10C620000420064600BF4B4850F82400C0F30140E8
:10C630008046204602F07AF8814641463046C84797
:10C6400000BF6D00641C082CE2D307F000400028F6
:10C6500079D04FF0000B00200590401E049000BFE1
:10C660004FF0000B002457E03B48005D0390039817
:10C6700020F0C00638480057401C00284BD001204D
:10C68000B04004990840002845D003984FEA90191B
:10C69000304602F053F8804602F048F802900298C3
:10C6A00010B9B9F1030F35D1012000FA06F5B9F13F
:10C6B000030F02D105982843059000BF274850F882
:10C6C0002600C0F3014800BF05EA0A0010B1B8F126
:10C6D000020F05D005EA0A00D8B9B8F1030F18D146
:10C6E000B9F1030F0FD1B8F1020F01D1032000E01F
:10C6F000022001903046019903F01CFC0BF101006F
:10C7000000F0FF0B00BF029818B149463046029A6C
:10C71000904700BF00BF641C042CA5D3BBF1000FE1
:10C720000DD000BF0A4909680846504503D14FF0B3
:10C73000000B03E007E082460599049100BFBBF1BE
:10C74000000F8DD100BF07B0BDE8F08F046300403B
:10C7500010050050106500403025002000070050F3
:10C7600000F01F0201219140024A430942F82310C0
:10C770007047000080E200E000F01F0201219140BC
:10C780004209920002F1E022C2F800117047000055
:10C7900000F01F0201219140024A430942F8231090
:10C7A0007047000000E200E010B5002807DA4A07F1
:10C7B000140E054A00F00F031B1FD45403E04A0770
:10C7C000130E024A135410BD18ED00E000E400E01F
:10C7D00000BF00BF00BFBFF34F8F00BF00BF00BF4F
:10C7E0000948006800F4E06008490843001D064954
:10C7F000086000BF00BF00BFBFF34F8F00BF00BF86
:10C8000000BF00BF00BFFDE70CED00E00000FA052F
:10C8100010B500200949086000210948C0F84411FA
:10C82000C0F84811C0F84C1100200549C1F80001BA
:10C8300002493C39086004F045FF10BD4011014039
:10C8400000100140FEB54FF4827003F00FFC38B3C6
:10C850004FF4827003F014FC00208DF800002D4886
:10C860004068019000BF2C48006880B2ADF8080015
:10C870002848C06820B90020264981F827000AE02E
:10C880002448C068234948600846808A08810020FF
:10C89000C86003F007FC1F4801686846884700BF6E
:10C8A0004FF48A7003F0E2FB40B14FF48A7003F05A
:10C8B000E7FB0020174981F827002AE015480569A1
:10C8C00024E0B5FA85F64FF00040F0408543B00013
:10C8D00000F58C74204603F0C9FBB8B1204603F084
:10C8E000CFFB01208DF80000A4F58C70C0F3C700C9
:10C8F0008DF80400A4F58C70012121EA90018DF8D7
:10C900000510044801686846884700BF002DD8D14B
:10C9100000BFFEBD30260020347600402DE9F047F0
:10C9200004460E4617469846DDF8209000BF1F4883
:10C93000007808B900F060FB00BF1C484069A042C5
:10C940002ED900BF0CB304EB44011848483040F81E
:10C95000316004EB440100EBC100476004EB44018B
:10C960001248483000EBC100C0F80880002104EBF9
:10C9700044020E48483000EBC200016104EB44025F
:10C980000A48483000EBC200C16004EB440107488C
:10C99000483000EBC100C0F8149000BF002501E052
:10C9A0004FF0FF352846BDE8F0870000182F002023
:10C9B0002DE9F04704460E4617469846DDF82090CC
:10C9C00000BF1F48007808B900F016FB00BF1C48E4
:10C9D0000069A0422ED900BF0CB304EB44011848F3
:10C9E000183040F8316004EB440100EBC1004760AF
:10C9F00004EB44011248183000EBC100C0F8088075
:10CA0000002104EB44020E48183000EBC200016123
:10CA100004EB44020A48183000EBC200C16004EB8A
:10CA200044010748183000EBC100C0F8149000BF63
:10CA3000002501E04FF0FF352846BDE8F0870000F3
:10CA4000182F00202DE9F04104460D46164600BF80
:10CA50000848007808B900F0CFFA00BF00BF32469E
:10CA60002946204600F008F8074600BF3846BDE8D2
:10CA7000F0810000182F00202DE9F0470746884676
:10CA80001646C24607EB47011B4800EBC109D9F81F
:10CA9000140020B1012811D0022826D11EE04846FA
:10CAA00000F0E2FA0546B54201D2002405E0344622
:10CAB00032465146484600F02CFC18E0484600F04B
:10CAC000D3FA0546B54201D2284600E03046044676
:10CAD00022465146484600F01CFC08E032465146CA
:10CAE000484600F0DDFB044601E0002400BF00BF23
:10CAF0002046BDE8F0870000302F00200FB438B585
:10CB0000044606A800906A462046059900F003F8FE
:10CB100038BC5DF814FB2DE9F04F99B082460D4604
:10CB2000144603A814904020159000201690CDF8CC
:10CB300060A0179000BF2E786D1C06B9DDE0252E91
:10CB400079D100274FF0010900BF2E78232E12D093
:10CB50002B2E0CD02D2E02D0302E10D103E047F01A
:10CB600001076D1C0EE047F002076D1C0AE047F05C
:10CB700004076D1C06E047F008076D1C02E04FF04B
:10CB8000000900BF00BFB9F1000FDED14FF000086F
:10CB900000BF2E78302E01DB392E00DD07E06D1C42
:10CBA000A6F1300008EB880100EB4108F1E700BF77
:10CBB000002013902E782E2E12D16D1C00BF2E78DF
:10CBC000302E01DB392E00DD09E06D1CA6F13000AE
:10CBD000139901EB810100EB41001390EFE700BFD7
:10CBE0002E7800BF6C2E01D0682E02D12E786D1CDD
:10CBF00000E000E0F6E700BF702E5DD008DC252ED7
:10CC00006AD0582E35D0632E09D0642E69D113E036
:10CC1000732E3CD0752E1DD0782E62D128E021686D
:10CC2000081D2060D1F8009009F0FF0B594614A8A8
:10CC300000F014FB56E058E02168081D2060D1F890
:10CC40000090CDE900870A22494614A8139B00F002
:10CC500019FA47E02168081D2060D1F80090CDE95D
:10CC600000870A22494614A8139B00F081FA39E094
:10CC700000BF2168081D2060D1F80090CDE9008731
:10CC80001022494614A8139B00F072FA2AE021688A
:10CC9000081D2060D1F800B000BF9BF800600BF1C8
:10CCA000010B06B906E0314614A800F0D7FA179830
:10CCB0000028F2DA00BF15E02168081D2060D1F8D5
:10CCC0000090002008210B461022CDE900104946B3
:10CCD00014A800F04DFA05E0252114A800F0BEFAD2
:10CCE00000E000BF00BF6D1C03E0314614A800F057
:10CCF000B5FA17980028BFF61EAF00BF1798002896
:10CD00000ADD169820B103A95046169AFFF79AFE3D
:10CD1000DDE9161008441790179819B0BDE8F08F98
:10CD200010B504F0E7FB10BD70B50B48006880B18A
:10CD3000094800688047044600BF25463DB100BF52
:10CD4000064A40F26511284600F02FFD00BF00BFE3
:10CD500001E002F013F870BDDC200020D01E0200BC
:10CD600001480249086070470090D003F420002079
:10CD700010B501F07DFE10B181488249486701F08D
:10CD80008FFE28B180480068C0F342307F490860B8
:10CD900001F0B0FE28B17E48006820F080707C4928
:10CDA000086001F0BFFE48B100207A4908604FF0EA
:10CDB0008041C1F810017549091F086001F0DCFECF
:10CDC00018B1032071496431086001F0EDFE68B1CB
:10CDD00005207149086001206F4978310860002002
:10CDE0006D49083108603F20091F086001F0F4FE1A
:10CDF000002855D069480068694908606748001DE7
:10CE00000068091D0860654808300068091D086051
:10CE100062480C300068091D0860604810300068E6
:10CE2000091D08605D4814300068091D08605B48F2
:10CE3000183000685A492031086058481C30006892
:10CE4000091D0860554820300068091D08605348D6
:10CE500024300068091D0860504828300068091D0A
:10CE600008604E482C300068091D08604B4830307F
:10CE700000684B4940310860484834300068091D5B
:10CE80000860464838300068091D086043483C3057
:10CE90000068091D0860414840300068091D0860AD
:10CEA0003B487438006840F47000394974390860B0
:10CEB00000BF00BF00BFBFF34F8F00BF00BF00BF68
:10CEC00000BF00BF00BFBFF36F8F00BF00BF00BF38
:10CED0003448006800F00100F0B1012032490860D8
:10CEE00000BF324800680028FBD02E48006820F0C0
:10CEF00001004FF01021C1F80C0200BF2B48006860
:10CF00000028FBD000202849086000BF274800689F
:10CF10000028FBD0FFF75CFC22480C38006800F0CA
:10CF2000004028B91F480838006800F0004018B3D6
:10CF300001201D49086000BF1C4800680028FBD084
:10CF4000152018490C39086000BF184800680028EF
:10CF5000FBD0152113480838016000BF1348006852
:10CF60000028FBD000201049086000BF0F4800686F
:10CF70000028FBD0FFF72CFCFFF7F2FE10BD0000ED
:10CF80000DF0ADBA00C00740440200103C0500405F
:10CF9000FCED00E00C0100401056004004040010BD
:10CFA00020C500400C12001004E5014000E40140DF
:10CFB00010B504220249034801F038FF10BD0000FB
:10CFC0005C2600200080004010B50422024903487E
:10CFD00001F02CFF10BD00006826002000900040EA
:10CFE00010B50448007F10B104F07CFD01E004F0AE
:10CFF000C9FC10BD3825002010B5124C022020615C
:10D00000606111A0A0611349E1614FF48061216268
:10D010000021A1626162E1620BA0A0640E49E1649B
:10D02000102121650021A1656165E1650BA1E01D6D
:10D03000FFF79EFA0AA12046FFF79AFA2020A07176
:10D0400010BD0000182F00205465726D696E616C70
:10D0500000000000082B0020082F0020525454002C
:10D06000534547474552000010B501460A69CB6851
:10D070009A4204D88C68641EE41AA01801E0D41AFD
:10D08000601E10BD2DE9FC5F06460F46924698468D
:10D09000DDE90C45002F01DA784200E0384683468E
:10D0A0004FF0010903E09BFBFAFB09F10109D345AD
:10D0B000F9DAC84500D9C14634B1002F03DB05F0C9
:10D0C0000400042800D1641E05F0020010B1B8F17C
:10D0D000000F11D005F0010070B96CB108E0641EBA
:10D0E0002021304600F0BAF8F068002800DA02E0AB
:10D0F0000CB1A145F3D300BFF068002836DB002F48
:10D1000005DA7F422D21304600F0A8F807E005F04F
:10D110000400042803D12B21304600F09FF8F0686A
:10D12000002823DB05F00200022814D105F00100DD
:10D1300088B9B8F1000F0ED16CB108E0641E30213F
:10D14000304600F08BF8F068002800DA02E00CB1FD
:10D15000A145F3D300BFF068002807DB43465246E1
:10D1600039463046CDE9004500F002F8BDE8FC9FA5
:10D170002DE9FC5F8046894615461E460C9CCDF87D
:10D1800004900127BB4605E00198B0FBF5F0019043
:10D190000BF1010B0198A842F6D25E4500D9B346C7
:10D1A0000D9800F00100D0B9CCB10D9800F002004C
:10D1B000022803D116B93020009001E02020009011
:10D1C00009E0641E4046009900F048F8D8F80C00C9
:10D1D000002800DA02E00CB1A345F2D300BFD8F872
:10D1E0000C00002835DB09E0012E01D9761E04E091
:10D1F000B9FBF7FAAA4500D201E06F43F4E700BF9C
:10D2000000BFB9FBF7FA0AFB1799134810F80A1088
:10D21000404600F023F8D8F80C00002800DA03E0BC
:10D22000B7FBF5F7002FECD100BF0D9800F001001F
:10D2300078B174B109E0641E2021404600F00EF878
:10D24000D8F80C00002800DA02E00CB1A345F2D3B4
:10D2500000BFBDE8FC9F0000C01E020070B5044680
:10D260000E46A568681C6168814206D32068465551
:10D27000681CA060E068401CE060D4E901108842AE
:10D280000DD1A26821682069FFF7DCFBA168884204
:10D2900003D04FF0FF30E06001E00020A06070BDDF
:10D2A0002DE9F0470446894617464FF0000AE56825
:10D2B00000BFD4F81080A84503D9A8EB0500461E8E
:10D2C00004E0A5EB0800401CA1680E1AA068401BF2
:10D2D000B04201D9304601E0A068401B0646BE427C
:10D2E00001D2304600E038460646616848193246A9
:10D2F0004946FFF719F9B244B144BF1B3544A06851
:10D30000A84200D10025E560002FD2D15046BDE8EB
:10D31000F0872DE9F047044689461546E668A0687F
:10D32000871BAF4208D9616888192A464946FFF72A
:10D33000FBF87019E06010E0B84661688819424651
:10D340004946FFF7F1F8A5EB070809EB070142464C
:10D350006068FFF7E9F8C4F80C80BDE8F08702E0E8
:10D3600008C8121F08C1002AFAD170477047002070
:10D3700001E001C1121F002AFBD1704700BFEFF38B
:10D380001081084672B670472DE9FC410446884674
:10D3900016460025378800203080606B68B1616BCD
:10D3A00008783B463246414603F0C6FC054600BFBE
:10D3B00015B12846BDE8FC8100BF206B58B13B4643
:10D3C00032464146206B04F0F3F9054600BF0DB12B
:10D3D0002846EFE700BF94F82E0060B194F82E00C5
:10D3E0003B463246414601F089FD054600BF0DB17E
:10D3F0002846DFE700BF94F82D0050B13A46314689
:10D40000404600F0BCFE054600BF0DB12846D1E7FE
:10D4100000BFA07850B13A463146404600F004FBC8
:10D42000054600BF0DB12846C4E700BFE07860B1F3
:10D43000E17848B23B463246414601F011FC0546D0
:10D4400000BF0DB12846B5E700BF606868B16168EC
:10D4500091F900003B463246414604F077FA054612
:10D4600000BF0DB12846A5E700BF208900280EDDCA
:10D4700043460622022104F10800CDE9006704F0CA
:10D480005BFC054600BF0DB1284693E700BF208A2C
:10D4900000280EDD43460722032104F11000CDE9E8
:10D4A000006704F049FC054600BF0DB1284681E73E
:10D4B00000BF208B00280EDD43461522142104F105
:10D4C0001800CDE9006704F037FC054600BF0DB138
:10D4D00028466FE700BF206A58B13B4632464146B6
:10D4E000206A01F0A6F9054600BF0DB1284661E7A4
:10D4F00000BF606A58B13B4632464146606A02F05E
:10D5000091F9054600BF0DB1284653E700BF94F8D6
:10D510002C0000280BDD3B4632464146204603F0F6
:10D5200026FC054600BF0DB1284643E700BF207822
:10D5300058B13B4632464146204602F0AEF9054618
:10D5400000BF0DB1284635E700BF284632E7014647
:10D55000C87800F0040008B9072070470020FCE7F5
:10D5600010B501220221002001F08EF8044600BF10
:10D570001CB1072C01D0204610BD00BF072202219C
:10D58000012001F081F8044600BF1CB1072C01D036
:10D590002046F1E700BF0A220021084601F074F896
:10D5A000044600BF1CB1072C01D02046E4E700BFB1
:10D5B0000020E1E730B5A7B0382119A8FEF7CDFF6C
:10D5C00002208DF8640000208DF8660006208DF89A
:10D5D000670038210BA8FEF7C0FF0120ADF83C0022
:10D5E00011491091242102A8FEF7B7FF01208DF800
:10D5F000140040200690002007900C4B02AA0BA9B3
:10D60000009019A800F0A2FA044600BF25463DB1DB
:10D6100000BF07A240F21F21284600F0C6F800BF55
:10D6200000BF27B030BD0000EC1F002051020200F7
:10D630002E2E5C2E2E5C2E2E5C6D61696E2E63008C
:10D6400010B504460DA10020FFF758FA10492068D4
:10D65000086041F27C5088600846D4F80A10C16125
:10D66000E1890184217C80F82210094960694862BF
:10D67000208988856068886210BD00006170705FD5
:10D68000626561636F6E5F696E69743A0D0A0000CE
:10D690008824002070B505462A4619A10020FFF70E
:10D6A0002DFA042D18D0052D17D0072D02D0082DE6
:10D6B00023D110E01948407960B100201749487122
:10D6C00050DF044634B11548406A18B11348416A26
:10D6D0002046884712E011E000BF1048007958B199
:10D6E000002001F07DFE044634B10C48406A18B1B8
:10D6F0000A48416A2046884700E000BF00BF70BD6D
:10D700006170705F626561636F6E5F6F6E5F73798A
:10D71000735F6576743A2025640D0A008824002022
:10D7200010B51448407910B91248007900B110BD05
:10D7300011A10020FFF7E2F901200E49087148719C
:10D7400012484FDF044634B10A48406A18B109480C
:10D75000416A20468847012001F042FE044634B168
:10D760000448406A18B10348416A2046884700BF10
:10D77000DDE70000882400206170705F62656163EE
:10D780006F6E5F73746172743A0D0A0045F40100A4
:10D7900070B504460D4616460C2000F07AFF32465E
:10D7A0002946204600F012F870BDFEB504460E462C
:10D7B0001546B0B2ADF80000019502946A4600210A
:10D7C00044F20100FFF7E4FFFEBD000018B501239D
:10D7D00000939DF800301E4B186059609A606FF4FA
:10D7E0008043034463B1012B19D1194BDA60DB6824
:10D7F0001B88174CA3612346DB685B68E3610EE07E
:10D80000134B1A611B699B68114C636123461B69AA
:10D810001B88A36123461B695B68E36100BF00BFEF
:10D820000B4B1B680A4B5B68094B9B68084BDB681A
:10D83000074B1B69064B5B69054B9B69044BDB6916
:10D8400072B600BF9DF80030002BFBD162B618BD48
:10D850007426002010B503460C4600BF0B48006834
:10D8600008B9082010BD00BF0AB90720FAE70BB9B4
:10D870000720F7E71868007C08B10820F2E719686C
:10D88000002008744C744A6100BFEBE7B820002008
:10D890002DE9F04180460E4614461F46204600F012
:10D8A000030109B9012100E0002111B90720BDE8F9
:10D8B000F08124B900201D4908600720F7E702F035
:10D8C0007BFE1B48076003201A4908701748046054
:10D8D000183400250DE01549096801EBC500002149
:10D8E000017041708670446006EB460104EBC10490
:10D8F0006D1C032DEFDB00200F4908600F490870F5
:10D900000F4908701420FEF72BFF06211420FEF7A4
:10D910004BFF1420FEF730FF404602F023FE02F0DA
:10D920001BFE084908600020C1E70000B820002065
:10D93000D0200020B4200020BC200020CC200020DB
:10D94000CD200020C02000202DE9F84304460D46DC
:10D950001746264600BF1148006810B90820BDE8E8
:10D96000F88300BF0CB90820F9E7052D01D2072084
:10D97000F5E7706908B90820F1E7707C012801D14A
:10D98000284600E00020804604F090F98146434696
:10D990002A463146009703F047FEE0E7B820002012
:10D9A00070B50446254600BF0948006808B908203C
:10D9B00070BD00BF0CB1686908B90820F8E7002005
:10D9C000287404F073F90646294603F05BFEEFE77E
:10D9D000B820002010B50446204603F079F910BDA8
:10D9E00070B5044625460E488068B0B1ADB9FFF762
:10D9F000C5FC06460A4800680A49086008484068AD
:10DA00004FF0E021C1F804010020054988601EB9EB
:10DA100000BF62B600BF00BF00BF00BF70BD000006
:10DA2000902F002000E100E0F8B505460C461746AF
:10DA30002088001DB84201D90C20F8BD684679DF66
:10DA4000064600BF0EB13046F7E700BF032021882D
:10DA500068542088401C2080192021886854208820
:10DA6000401C208020884119BDF8000004F0D0F847
:10DA70002188084420800020DFE700000146034899
:10DA8000084008B9012070470020FCE700C0F0FF03
:10DA900010B5044600BF04A240F201312046FFF752
:10DAA00084FE00BF10BD00002E2E5C2E2E5C2E2E9C
:10DAB0005C6D61696E2E63002DE9F04192B0804685
:10DAC0000D461F2011901090B8F1000F17D040465E
:10DAD000FFF73DFD044600BF1CB1204612B0BDE873
:10DAE000F08100BF11AA08A94046FFF74DFC04468B
:10DAF00000BF0CB12046F1E700BF08AE02E00026EF
:10DB000000201190ADB1284603F050FB044600BF41
:10DB10000CB12046E2E700BF10AA69462846FFF78D
:10DB200033FC044600BF0CB12046D7E700BF6F4668
:10DB300002E0002700201090BDF84000C3B2BDF8FD
:10DB40004400C1B23A46304672DFC7E72DE9F047DC
:10DB500004460F4615461E46DDF8208000BF14B966
:10DB60000E20BDE8F08700BF00BF0DB90E20F8E71A
:10DB700000BF002046490870464806604648C0F885
:10DB80000080242229464548FEF7CEFC00F018F913
:10DB90004348444908604448886038214348FEF7B8
:10DBA000DCFC207841490870A0788870E078C87063
:10DBB000607848700846D4E90412C0E90412D4E938
:10DBC0000212C0E90212D4E90612C0E90612606A24
:10DBD000D8B137483549486236498160606A008863
:10DBE0003249496A0880606A80883049496A888079
:10DBF000002005E0616A8968095C2E4A1154401CC6
:10DC00002A49496A89888142F4D8A06A20B32A49FE
:10DC10002A4881602549886227492448806A8160B2
:10DC2000A06A80882149896A8880A06A00881F4983
:10DC3000896A0880002005E0A16A8968095C1E4A9B
:10DC40001154401C1949896A89888142F4D894F892
:10DC50002C00164981F82C00206A58B11848134945
:10DC60000862206A4088096A4880206A00880F4953
:10DC7000096A0880606820B112480C4948606068F1
:10DC8000486039460948FFF717FF8146484668E76C
:10DC900050200020482000204C200020802300201D
:10DCA000B4230020A4230020D423002048230020F4
:10DCB000F4230020002400202C2400202024002015
:10DCC000542000205820002070B5044620881028D9
:10DCD00004D0112809D01B2863D11BE0A07D0128A6
:10DCE00002D1A088304908805CE000202F490870EC
:10DCF000A0882D49098888420BD1012000F0A4F8A2
:10DD0000054635B12A48006818B1284628490968EF
:10DD1000884747E0207A002842D126480078012829
:10DD200006D0022811D003281CD0042836D129E0BF
:10DD3000022000F089F8054635B11D48006818B189
:10DD400028461B490968884729E0032000F07CF831
:10DD5000054635B11648006818B1284614490968C7
:10DD600088471CE0032014490870042000F06CF878
:10DD7000054635B10E48006818B128460C490968B7
:10DD800088470CE000200C4908700C48006820B15E
:10DD90000846007809490968884700E000BF00BFCD
:10DDA00000E000BF00BF70BD5A20002051200020BD
:10DDB0004C2000205020002044200020482000203B
:10DDC0000248002101608180817170473D20002060
:10DDD00010B518480078012829D11748007830BBC1
:10DDE0001648007830B174DF044600BF0CB12046FD
:10DDF00010BD00BF01201049087006201049C870EE
:10DE000000210F48FFF758FE044600BF0CB1204622
:10DE1000EEE700BF0948007800F016F8044634B178
:10DE20000848006818B1204606490968884700205C
:10DE3000DEE7000080230020512000205020002039
:10DE4000482300204C20002030B587B00546954877
:10DE5000057000F020FF28B10120934908700020D0
:10DE600007B030BDFFF7ACFF9048407818B18D483F
:10DE7000007801280DD08D48807818B18948007845
:10DE8000012806D08948807888B186480078022821
:10DE90000DD18748006838B10120864908700820F4
:10DEA00083490968884702E00020824908707D485C
:10DEB0000078012809D17D48407818B17E4802F0E9
:10DEC00019FB10B9022077490870764800780228BB
:10DED00009D17648807818B1774802F00BFB10B969
:10DEE0000320704908707148007B30B96D48007894
:10DEF000032802D104206B4908706C48007E40B9A9
:10DF000068480078042804D10020664908706B49ED
:10DF1000087067480068A8B162480078032803D0F9
:10DF20006048007804280DD16048007850B16448FA
:10DF3000007838B901206349087007205C490968F6
:10DF4000884702E000205F490870182101A8FEF709
:10DF500004FB00208DF8040002908DF80C00049062
:10DF600050480078012806D0022813D0032825D075
:10DF7000042876D150E05048401E029001208DF8D0
:10DF800004000020ADF81600ADF8140001204B4944
:10DF9000087071E04848401E029001208DF804008E
:10DFA0004248008980B2ADF816004048808880B2AF
:10DFB000ADF814000220414908705DE03B48808ABA
:10DFC00080B2ADF816003948008A80B2ADF814006E
:10DFD0003D4803F046FFD8B134480078C0B1384816
:10DFE0000078A8B902208DF80C003748049004206E
:10DFF0003649C87000213548FFF75EFD044600BF72
:10E000000CB120462CE700BF05202C49087002E027
:10E0100003202A4908702FE02448808B80B2ADF895
:10E0200014002248008C80B2ADF81600264803F098
:10E0300018FFE0B11D480078C8B121480078B0B998
:10E0400002208DF80C002048049004201F49C8705D
:10E0500000211E48FFF730FD044600BF14B12046E2
:10E06000FEE608E000BF06201449087002E0042024
:10E070001249087000E000BF00BF0A48007838B1BC
:10E0800001A873DF044600BF0CB12046E8E600BFDC
:10E090000748006820B109480078054909688847A1
:10E0A0000020DDE6502000203C20002080230020BE
:10E0B00048200020532000203E2000204420002043
:10E0C0005120002052200020A423002048230020BB
:10E0D00070B505461C2229461248FEF725FA002095
:10E0E00011490870286850B1104829680A68026010
:10E0F000496841607ADF04463CB1204670BD0B4858
:10E100007BDF04460CB12046F8E74FF6FF70084964
:10E110000880002007490870074A00210748FFF7D8
:10E1200099FBEBE74C240020702000205C200020AD
:10E1300066200020642000201D1C0200981E0200A2
:10E1400010B504462088102806D0112808D01228BF
:10E150000ED0502810D107E0204602F033F90CE031
:10E16000204602F04FF908E0204602F06FF904E083
:10E17000204602F01BF900E000BF00BF10BD2DE9F2
:10E18000FC4105460C46174620880930B84202D9A2
:10E190000C20BDE8FC81684671DF064600BF0EB169
:10E1A0003046F6E700BF0820218868542088401CCC
:10E1B00020801B20218868542088401C20802088D3
:10E1C0002844DDF801100160BDF805108180208829
:10E1D000801D20809DF8000018B900202188685417
:10E1E00002E00120218868542088401C2080002003
:10E1F000CFE7000010B504462046FFF7A1FF2146F7
:10E20000064800F059F8204602F046F82046FFF78D
:10E210005BFD204600F0ACF910BD0000F8200020A6
:10E2200070B586B004460E46224B0FCB01AD0FC52C
:10E2300000BF14B90E2006B070BD00BF00BF0EB9FC
:10E240000E20F8E700BF4FF6FF70A0823068A06193
:10E250000020A075214601A863DF054600BF0DB16F
:10E260002846E8E700BF20788DF8160041F23830E4
:10E27000ADF81400A21C05A90120A0DF054600BFCF
:10E280000DB12846D7E700BF3146204602F0E8F935
:10E29000054600BF0DB12846CDE700BF31462046F8
:10E2A00003F0C6FA054600BF0DB12846C3E700BF1C
:10E2B0000020C0E79C1E020070B505460C4605B163
:10E2C00004B970BD2088102804D0112807D0502828
:10E2D0000FD109E02146284602F090F80AE02146D5
:10E2E000284602F0AFF805E02146284602F0DAF8A9
:10E2F00000E000BF00BF00BFE3E737B584B00446CD
:10E300000D4600BF14B90E2007B030BD00BFA08A73
:10E310004FF6FF71884201D0A07D08B90820F3E7CD
:10E32000BDF81800142801DD0720EDE7002000905B
:10E33000019002900390A089ADF80000039506A813
:10E34000029001208DF80200A08A6946A6DFDBE773
:10E3500070B586B043A10020FEF7D0FB46480068A8
:10E36000059046A10020FEF7C9FB48A10020FEF75A
:10E37000C5FB00BF4CA10020FEF7C0FB00234822D4
:10E38000564905A802F0D2FE05462A4654A10020AF
:10E39000FEF7B4FB00BF2E463EB100BF5BA240F2C9
:10E3A000CD113046FFF701FA00BF00BF00BF5BA1EF
:10E3B0000020FEF7A3FB6A460121002002F096FE32
:10E3C000044600BF25463DB100BF50A24FF4EA719C
:10E3D0002846FFF7EAF900BF00BF00BF534E3046A2
:10E3E00002F0C4FB044600BF25463DB100BF47A272
:10E3F00040F2D7112846FFF7D8F900BF00BF00BF91
:10E40000684602F0F1FD044600BF25463DB100BF5D
:10E410003EA24FF4ED712846FFF7C7F900BF00BFD9
:10E42000434802F0D5FD044600BF25463DB100BF7C
:10E4300036A24FF4EF712846FFF7B7F900BF00BFCF
:10E440003C4802F0A7FE044600BF25463DB100BF90
:10E450002EA240F2E1112846FFF7A7F900BF00BF46
:10E4600006B070BD202053657474696E6720636CBC
:10E47000636B0D0A000000007C1E02002020636C0C
:10E48000636B207365740D0A000000002020534F59
:10E4900046544445564943455F48414E444C4552D5
:10E4A0005F494E49540D0A002020202053617474A6
:10E4B000206F707020424C455F4556545F42554670
:10E4C0004645522C20736B616C206C61676572202D
:10E4D0004552525F436F64650D0A00002021002001
:10E4E00020202020536F66746465766963655F68D9
:10E4F000616E646C65725F696E6974204572726FDB
:10E500007220436F64653A0D0A0000002E2E5C2EC7
:10E510002E5C2E2E5C6D61696E2E63002020494EAC
:10E52000495449414C495A45440D0A00E81F00200E
:10E53000F5E101000712020070B505460C46002601
:10E540000948056044B1204602F037FE064600BF88
:10E550000EB1304670BD00BF0448006810B9FEF728
:10E56000FFFF06463046F5E7342000203820002023
:10E5700070B505462888102802D011282CD115E046
:10E580001748006860B900F017FA044600BF34B1BC
:10E590001448006818B1204612490968884700BF2E
:10E5A0000F480068401C0E49086016E00C480068DF
:10E5B000401E0B4908600846006860B9FEF7D0FFAE
:10E5C000044600BF34B10748006818B12046054929
:10E5D0000968884700BF00E000BF00BF70BD0000B1
:10E5E000382000203420002010B5032000F058F817
:10E5F000044600BF1CB1062C01D0204610BD00BF50
:10E600000020FBE7024600200870704770B5054601
:10E61000042D06D0072D18D00A2D28D102F0A0FC19
:10E6200026E013211348008876DF0446082C0BD01F
:10E6300000BF26463EB100BF0FA240F2F5113046A2
:10E64000FFF7B3F800BF00BF12E0FFF7C1FB0446BD
:10E65000082C0BD000BF26463EB100BF06A240F2F8
:10E66000FD113046FFF7A1F800BF00BF00E000BF7A
:10E6700000BF70BDEA1F00202E2E5C2E2E5C2E2EB9
:10E680005C6D61696E2E630010B5034600200720A3
:10E6900010BD01460020704710B50346002010BD94
:10E6A0000146062070470246481CC1B2062900DD1B
:10E6B0000121084670470000F8B50546164A40F6A5
:10E6C000CD410320FFF7E8FF044600BF26463EB1D8
:10E6D00000BF12A240F22D213046FFF766F800BFBE
:10E6E00000BF69460020FFF727FF044600BF26460B
:10E6F0003EB100BF09A24FF40C713046FFF755F848
:10E7000000BF00BF9DF80000022801D1012000E0F9
:10E7100000202870F8BD00000DE601002E2E5C2EB2
:10E720002E5C2E2E5C6D61696E2E630001460248E0
:10E7300050F8210070470000E02400200146014805
:10E7400040567047102500202DE9F04782461F48AB
:10E750000068002836D01D480068056801F0FCFEFE
:10E7600007461B4804682146384602F052FDC61C85
:10E770001848007808B901F001FFAE4201D22846DE
:10E7800000E03046044424F07F44204601F0DEFEE1
:10E7900001F0E2FE80463946404602F03AFD00F1C3
:10E7A00003093946204602F034FD814509D901F0BC
:10E7B000D3FE814601F0CAFE2F20FDF767FE02F06E
:10E7C000CDFF01E001F0F8FEBDE8F087BC2000209D
:10E7D000C0200020D420002001460888062808DB3D
:10E7E0000888B0F5486F06DD08884FF6FF72904242
:10E7F00001D0072070474888062808DB4888B0F514
:10E80000486F06DD48884FF6FF72904201D007201E
:10E81000F0E708884FF6FF72904208D0488890428F
:10E8200005D008884A88904201DD0720E2E70020F1
:10E83000E0E72DE9F04106460D461446984620884B
:10E84000801D404502D90C20BDE8F0813046FFF71D
:10E85000C3FF074600BF0FB13846F5E700BF0520EC
:10E86000218868542088401C208012202188685408
:10E870002088401C208022885119308803F0C8F974
:10E8800021880844208022885119708803F0C0F93B
:10E890002188084420800020D6E7000010B50446F7
:10E8A00000BF04A240F239112046FEF77EFF00BFF0
:10E8B00010BD00002E2E5C2E2E5C2E2E5C6D61692C
:10E8C0006E2E630030B587B01C216846FDF745FE0B
:10E8D000002000904FF4203001904FF470200290FF
:10E8E00003208DF80C000020ADF80E008DF810000C
:10E8F0000A4805900A4806906846FFF7E9FB044677
:10E9000000BF25463DB100BF06A240F24F11284688
:10E91000FEF74BFF00BF00BF07B030BD6D03020024
:10E920009DE801002E2E5C2E2E5C2E2E5C6D616902
:10E930006E2E630038B51B4800F0C0FA20BB1A48A1
:10E94000007848B119484069E8B1002000901748A4
:10E9500041696846884716E01548007810B91348A1
:10E96000456801E011488568002229461148006881
:10E97000FEF7EAFF044634B10C48806918B10B4831
:10E9800081692046884709E00848406930B1012084
:10E990000090064841696846884700BF0020024948
:10E9A000087038BD68200020702000204C24002012
:10E9B00064200020981E020010B5012200210846A4
:10E9C000FFF762FE044600BF1CB1072C01D02046B1
:10E9D00010BD00BF072202210120FFF755FE0446AB
:10E9E00000BF1CB1072C01D02046F1E700BF042274
:10E9F00002210020FFF748FE044600BF1CB1072C8F
:10EA000001D02046E4E700BF0020E1E701461448BA
:10EA10000078144A127890421DD011480078401CAA
:10EA20000F4A107010460078022801D100201070A3
:10EA30000D480B4A127850F8220008600B4A08680B
:10EA400012681044094A10601046006820F07F40A8
:10EA50001060012070470020086000BFFAE7000046
:10EA6000CC200020CD200020C4200020C020002089
:10EA70000A48007806280ED10848001D007800F0EA
:10EA80000F0040B905480830007800F0F000302849
:10EA900001D1012070470020FCE70000E00F00F0EA
:10EAA00013480078062820D11148001D007800F096
:10EAB0000F00D0B90E480830007800F0F000302880
:10EAC00001D1012070470A480830007800F0F000BA
:10EAD000402801D10120F5E705480830007800F012
:10EAE000F000502801D10120ECE70020EAE7000007
:10EAF000E00F00F00A48007806280ED10848001DF3
:10EB0000007800F00F0040B905480830007800F0A8
:10EB1000F000302801D1012070470020FCE7000000
:10EB2000E00F00F013480078062820D11148001D9E
:10EB3000007800F00F00D0B90E480830007800F0DF
:10EB4000F000302801D1012070470A4808300078D1
:10EB500000F0F000402801D10120F5E70548083019
:10EB6000007800F0F000502801D10120ECE70020EF
:10EB7000EAE70000E00F00F00A48007806280ED10E
:10EB80000848001D007800F00F0040B90548083023
:10EB9000007800F0F000302801D1012070470020FB
:10EBA000FCE70000E00F00F00A48007806280ED1CC
:10EBB0000848001D007800F00F0040B905480830F3
:10EBC000007800F0F000302801D1012070470020CB
:10EBD000FCE70000E00F00F00A48007806280ED19C
:10EBE0000848001D007800F00F0040B905480830C3
:10EBF000007800F0F000502801D10120704700207B
:10EC0000FCE70000E00F00F0F0B5034600241FE031
:10EC1000124E306806689E4203D90668F61A0660EE
:10EC20001AE006689B1B06683444002606600B4EFB
:10EC300035680A4FC6693E60C66846B10E1926F0AF
:10EC40007F464660C66886601668C661156000BF6C
:10EC5000024800680028DBD100BFF0BDBC200020C6
:10EC600030B504461088C01C984201D90C2030BD34
:10EC70000220158848551088401C108001201588F6
:10EC800048551088401C108015884C551088401C31
:10EC900010800020EBE738B500200090684601F0B6
:10ECA00035FC0446082C02D00CB1012038BD082CDC
:10ECB00006D1684600F00AF804460CB10020F5E7DA
:10ECC000009808B10120F1E70020EFE7014609B9FB
:10ECD000032070470248406D08600020F9E70000FB
:10ECE000942600203EB500BF9DF8000020F00F00E4
:10ECF000401C00909DF8000020F0F00010300090C3
:10ED000000BF082216A168467CDF044600BF2546E6
:10ED100035B100BF15A2D0212846FEF746FD00BF41
:10ED200000BF0020019002901020ADF804003C20AC
:10ED3000ADF806000020ADF808004FF4C870ADF83B
:10ED40000A0001A87ADF044600BF254635B100BF9E
:10ED500006A2DA212846FEF728FD00BF00BF3EBD0F
:10ED6000424C452D43756265000000002E2E5C2E3E
:10ED70002E5C2E2E5C6D61696E2E6300F8B5254801
:10ED8000007800B9F8BD2448006808B9012000E007
:10ED9000002005462148006808B9012000E0002055
:10EDA000064600BF9DB9684652DF0446052C01D1D6
:10EDB00001250BE034B100BF194A94212046FEF72B
:10EDC000F4FC03E0144900980968884700BFCEB9F5
:10EDD00014480088009069461348006861DF0446C3
:10EDE000052C01D101260CE034B100BF0C4AB3213F
:10EDF0002046FEF7DAFC04E00B4800680749096882
:10EE0000884700BF0DB106B100E0CBE700BF00BFEF
:10EE1000B8E70000E0200020F0200020EC200020D7
:10EE2000D01E0200E8200020E42000202DE9F04759
:10EE300004460E469046002722E0384601F038F995
:10EE40000546384601F03BF981462046294642589E
:10EE50000AB1012200E0002282B14846D4F804132E
:10EE6000014009B1012100E0002139B129462046C5
:10EE700001F02AF92846D6E900219047781CC7B24C
:10EE80004745DADBBDE8F08710B50446204600F0C0
:10EE900021FE04490968084008B1012010BD002086
:10EEA000FCE70000AC20002070B50446204600F0CE
:10EEB00011FE0546FEF7E2FD70BD000001464888E0
:10EEC000064A1288904206DB4888044A52889042DB
:10EED00001DC012070470020FCE700005C200020DE
:10EEE00010B50446204600F0F5FD0349084008B17E
:10EEF000012010BD0020FCE7FF3F0F0030B50446A5
:10EF00001088C01C984201D90C2030BD0220158801
:10EF100048551088401C10801C20158848551088C2
:10EF2000401C1080012C06D0022C08D0032C0AD0E3
:10EF3000042C10D10BE00020158848550DE001206D
:10EF40001588485509E002201588485505E003203A
:10EF50001588485501E00720D7E700BF1088401CFE
:10EF600010800020D1E700002DE9F0412148D0F8C1
:10EF70000080214806782FE02048006800EBC60496
:10EF8000257825E005EB4501606800EBC107681CAA
:10EF9000C5B2A078A84200D100253878022802D056
:10EFA000032812D103E0786802F008FB0EE007E0C6
:10EFB00010490868002101740E4AC169116000BF40
:10EFC0000C4800680028F3D100E000BF00BF00BF7C
:10EFD0006078A842D6D100BF301EA6F10101CEB2A2
:10EFE000CAD104480068404502D00120BDE8F08144
:10EFF0000020FBE7BC200020B4200020B820002027
:10F000002DE9F04706463B48D0F800903A4807788B
:10F0100061E03A48006800EBC70555E016B1344698
:10F02000E66923E02A7802EB4202696801EBC2003C
:10F030002978491C29702978AA78914201D10021A8
:10F04000297044680178012901D1217C01B13BE09C
:10F0500081686160C168A1600169E1604169A16185
:10F060002749097809B10021616000BF254960681E
:10F070000968401A20F07F402349884208D221497C
:10F080006068096802F0C5F8A1680844206010E0D3
:10F090001C486168006802F0BCF88046A0684045E2
:10F0A00004D9A068A0EB0800206001E000202060E7
:10F0B00000BF00206060A060012020740020E0619B
:10F0C000204602F047FA00BF002EA7D128786978C1
:10F0D0008842A3D100BF381EA7F10101CFB298D159
:10F0E00004480068484502D00120BDE8F0870020B0
:10F0F000FBE70000BC200020B4200020B820002046
:10F10000D5200020C0200020FFFF7F0008B50F4859
:10F11000007808B1002008BD012083020C4A0DA12F
:10F1200000900020FDF744FC08B10820F3E7002020
:10F1300010230A4A0AA10090FDF7F0FB08B108204D
:10F14000E9E70120014908700020E4E7D62000200B
:10F15000EC2600204E6F726D616C0000EC2A0020DE
:10F16000496E7075740000000FB438B5044606A8E7
:10F1700000906A4620460599FDF7CDFC00200090DE
:10F1800038BC5DF814FB0000012008490873002119
:10F1900006480174417401684FF47A704143034892
:10F1A0004161816881610C30704700008824002033
:10F1B00010B500F04FF8044601201E4908601E48B3
:10F1C0001E4908601E48091D086040F203101B49D3
:10F1D0002031086040F25B60091D0860012017497A
:10F1E0001C3108600320174908601449091F086092
:10F1F000962012493031086010201349C1F80403E9
:10F200008E200E491031086010480C490831086002
:10F210000F480A4928310860084810380460012066
:10F22000012181404209920002F1E022C2F800115E
:10F2300000BF10BDFC1F0040060102001415004075
:10F2400025000302001200400010004000D6BE89D5
:10F250005555550070B5002402203B4908552246FB
:10F26000641C5018017841F04001017000222146D1
:10F27000641C3548425425460021641C415501193F
:10F280003248C2690A60008C8880A41D022221468F
:10F29000641C2D48425401222146641C425406221B
:10F2A0002146641C425403222046611CCCB22649EC
:10F2B0000A542046611CCCB223490A54AA22204693
:10F2C000611CCCB220490A54FE222046611CCCB2FB
:10F2D0001D490A5400222046611CCCB21A490A5426
:10F2E00026461621601CC4B217488155AA22204622
:10F2F000611CCCB214490A54FE222046611CCCB2D7
:10F3000011490A5410222046611CCCB20E490A54FD
:10F31000EE222046611CCCB20B490A540B4B5B1EFB
:10F320009A8D996A084B1819FDF7FEF80748401E98
:10F3300090F82C002044C4B2601B03494870A01B05
:10F340000874084670BD0000B824002089240020FD
:10F3500010B50446012C04D0022C09D0032C1DD179
:10F3600011E0252000F050F801200E49086016E059
:10F37000262000F049F801200B49C8604FF4C870FE
:10F380000A4908600BE0272000F03EF801200649FA
:10F39000C8604FF4C8700549086000E000BF00BFB6
:10F3A00010BD00000010004000800040408500407B
:10F3B00010B50849084801600849001F0160801520
:10F3C000054950390860FFF7F3FE01200149086143
:10F3D00010BD00000010004054F501404081004085
:10F3E00010B5044600200649087300210448017442
:10F3F000447481684161034981610C3051DF10BD63
:10F400008824002040420F00252806D102210C4A02
:10F41000116025210A4A4C321160262806D11A2192
:10F42000074A11602621064A4C321160272806D16E
:10F430005021034A11602721014A4C321160704764
:10F440000815004010B504460020214948600870A6
:10F4500014B1022C30D109E0FFF7AAFF00201D49AA
:10F46000087008460078401C08702DE01A480068B3
:10F47000012820D100201849086016480078FFF7BD
:10F4800067FF14480078042810D1800113490860F0
:10F490001348007930B1FFF777FE0D49486003202B
:10F4A000087002E002200A4908700DE0094800785F
:10F4B000401C0849087007E00948406A18B108482C
:10F4C000416A0820884700BF00BF014810BD000006
:10F4D000742000207C2000201011004008F501401D
:10F4E0008824002008B5192001210A4600231D4662
:10F4F0001E4641EA420747EA830747EA052747EAEB
:10F50000064C994F47F820C000BF00BF00F024FD13
:10F5100096A10020FDF7F2FA00BF0023974A0521CB
:10F520001846FEF7B5F9054600BF2E463EB100BFAE
:10F5300093A24FF44A713046FEF737F900BF00BF7F
:10F5400000BF93A10020FDF7D9FA6846FFF7B4F891
:10F55000FEF7FEFEFFF7C6FB01F054FCFEF72AF8AB
:10F56000FFF7B0F901F076FA01F0B6F901F054FABC
:10F570000320FEF769FC044600BF25463DB100BFED
:10F580007FA240F23B312846FEF70FF900BF00BFD3
:10F5900002F0EAF801F05AFCEE221146104601F0A2
:10F5A000A6FC7EA10020FDF7A9FA00BF85480078DF
:10F5B00050B185A10020FDF7A1FA02208949887188
:10F5C00008228948FEF799FE082000F0D5FC88B192
:10F5D0008648007870B1864801780820FFF763F804
:10F5E00083490870084600787E49087000207F49EA
:10F5F000087006E0082000F0BFFC10B901207B492C
:10F600000870072000F0B8FC88B17A48007870B123
:10F61000794801780720FFF746F8774908700846CF
:10F6200000787049487000207249087006E0072091
:10F6300000F0A2FC10B901206E4908700A2000F009
:10F640009BFC88B16D48007870B16D4801780A2044
:10F65000FFF729F86A490870084600786149887000
:10F6600000206649087006E00A2000F085FC10B909
:10F67000012062490870092000F07EFC88B16148D1
:10F68000007870B1604801780920FFF70CF85E49F6
:10F690000870084600785349C8700020594908701E
:10F6A00006E0092000F068FC10B9012055490870F7
:10F6B0000C2000F061FC88B15448007870B15448C7
:10F6C00001780C20FEF7EFFF5149087008460078DA
:10F6D0004449087100204D49087006E00C2000F0F4
:10F6E0004BFC10B90120494908700B2000F044FC84
:10F6F00088B14848007870B1474801780B20FEF780
:10F70000D2FF454908700846007836494871002004
:10F710004049087006E00B2000F02EFC10B90120D3
:10F720003C4908703D4B3A4D2D785B5D3C4D3A4E5F
:10F730003678AD5D2B44DAB2384B314D2D785B5DB8
:10F74000374D314E3678AD5D2B44D9B2334B284D11
:10F750002D785D5D324B284E36789B5D2B44D8B2B8
:10F7600001F0C5FB22E700000007005052756D62F2
:10F770006C65207365740D0A000000008021002074
:10F780002E2E5C2E2E5C2E2E5C6D61696E2E63001B
:10F790004E6F20456464790D0A000000576527729A
:10F7A0006520656E746572696E6720746861206C8F
:10F7B0006F6F6F702120414D4D41474144210D0A2B
:10F7C00000000000F01F002043756265206861732F
:10F7D0002062696E2073686F6F6F6F636B65642062
:10F7E000210D0A0008200020F820002025200020FC
:10F7F000102000202620002011200020272000209B
:10F800001220002028200020132000202920002082
:10F81000142000202A20002015200020162000207F
:10F820001D2000202DE9F04105460E46144698465D
:10F83000A888871C2088801C3844404502D90C20A9
:10F84000BDE8F081FE2F01D90C20F9E7781C218852
:10F8500070542088401C2080FF202188705420880C
:10F86000401C208022889119288802F0D1F9218833
:10F8700008442080A88800280DDDA86808B9072062
:10F88000DEE7AA8823889819A968FCF74DFE20882E
:10F89000A988084420800020D2E72DE9F84F0546CA
:10F8A0000F46144698462878012804D1687810B984
:10F8B0000720BDE8F88F2088801C404508D82878AC
:10F8C000012807D12088801C69780844404501D967
:10F8D0000C20EEE72088A8EB0000801E86B2009680
:10F8E0002188891CC81969467DDF814600BFB9F1AE
:10F8F000000F01D04846DCE700BF2878022806D177
:10F90000BDF80000B04202DC4FF0090A0BE04FF0F6
:10F91000080A2878012805D16878B04202DC6878A6
:10F92000009000E00096BDF80000FE2801D90C20F0
:10F93000BFE7BDF80000401C218878542088401C97
:10F940002080208807F800A02088401C2080208884
:10F95000BDF80010084420800020AAE701B506E0A9
:10F960000098401E009040F2E730FCF753FD0098ED
:10F970000028F5D108BD000070B50B4601461A46B7
:10F98000002907DA5407260E104C01F00F052D1F31
:10F99000665503E05407250E0D4C655400BF00BFAB
:10F9A00000F01F02012191400A4A440942F8241044
:10F9B00000BF00BF00F01F020121914042099200E8
:10F9C00002F1E022C2F8001100BF70BD18ED00E0A6
:10F9D00000E400E080E200E00146C1F3073250B2EB
:10F9E00070470000F8B5064600250427164D002490
:10F9F00025E0002000906846FDF7ECFF204600F06F
:10FA000069F8284078B12046FFF73EFA58B900BFA0
:10FA1000204600F05FF80D49096808430B4908606B
:10FA200000BF347000279DF80000FDF7D9FF07B92B
:10FA300007E0204600F04EF88543601CC4B2002D5C
:10FA4000D7D100BF3846F8BDFF3F0F00AC200020E3
:10FA500070B506460C46154600BF0CB90E2070BDA9
:10FA600000BF00BF0DB90E20F9E700BF3046FFF719
:10FA700037FA08B90720F2E73046FFF705FA08B968
:10FA80000820ECE700BF044840F8364000EBC60011
:10FA9000456000BF0020E2E710F5014010B50446C4
:10FAA0002046FFF701FA08B9072010BD2046FFF7EE
:10FAB00017FA28B12046FFF7E7F908B90820F4E75C
:10FAC00000BF0120A0400249086000BF0020ECE711
:10FAD00004F5014001460120884070470449097837
:10FAE00021B90121024A1170002000E085207047F1
:10FAF000A820002070B504460D46022000F0C6FA8A
:10FB00001E4890F8270001281ED11C48C06820B16B
:10FB1000022000F0C1FA112070BD1848C46085822F
:10FB200000BF4FF4807000F0A1FA0028F9D04FF424
:10FB3000807000F0A5FA2946204600F04FFA022016
:10FB400000F0AAFA0020E7E7022000F0A5FA012061
:10FB50000A4981F827000846446005810020C860F2
:10FB60002946204600F03AFA4FF4807000F088FAF7
:10FB7000002000F097FA0020CEE700003026002099
:10FB800070B505460C46134890F82700012801D1AE
:10FB9000112070BD0F48163010F8150030B90D480F
:10FBA00090F82800401C0B4981F82800A1790948E9
:10FBB000163000F81510E17900EB45004170214640
:10FBC000284600F013FAE279A179284600F042FABB
:10FBD0000020DEE73026002070B504460D461B48A5
:10FBE00090F8260008B1082070BD0DB90720FBE78A
:10FBF00004B9174C1548056020781649086000BF05
:10FC00006078091D086000BF0120104981F82600B6
:10FC1000002081F8270081F8280008616FF000407B
:10FC200000F034FA4FF4827000F02AFAA17807202D
:10FC3000FFF7A2FE022000F02FFA00BF01200549C5
:10FC4000F039086000BF0020CEE700003026002019
:10FC5000AC1E0200F07500402DE9F04105460C464F
:10FC600016461F46204600F02AFA804627B1414634
:10FC7000286800F02FFA03E04146286800F027FAD0
:10FC8000286800F5A86141F8246000BFBDE8F08154
:10FC900010B504460021206800F025FA02202179E1
:10FCA00001EB4101024A02EB8101087210BD000024
:10FCB0005C2600202DE9F04105460E4617461C46FD
:10FCC000DDF818804FF48072B2400123B34042EA5D
:10FCD0000301286800F001FA2868D0F800122143D7
:10FCE000C0F8001200BF43463A4631462846FFF7A7
:10FCF000B3FFBDE8F08100002DE9F04704460D4652
:10FD00009046207900EB4000354901EB800735A192
:10FD10000020FCF7F3FE38A10020FCF7EFFE387A54
:10FD200010B10820BDE8F087B8F1000F01D107201D
:10FD3000F8E71DB92079364901EBC005C7F8008006
:10FD40006868786000260EE0324632A10020FCF799
:10FD5000D5FE304600F0ACF981464946206800F0F7
:10FD6000B3F9701CC6B26079B042EDDC32A100205C
:10FD7000FCF7C4FE2068FFF72FFE8146E978FFF705
:10FD8000FBFD36A10020FCF7B9FE69782068D0F8A9
:10FD9000042561F30102C0F8042500BF38A100204A
:10FDA000FCF7ACFEA9782068D0F8082561F30102C1
:10FDB000C0F8082500BF39A10020FCF79FFE297874
:10FDC0002068D0F8102561F30302C0F8102500BFA9
:10FDD0003AA10020FCF792FE012038720020A1E732
:10FDE0005C2600202020202032415353455254539A
:10FDF0002E2E0D0A000000002020202041535345E4
:10FE00005254532047494B4B204F4B0D0A000000E2
:10FE1000B01E020020202020466F72206CF86B6B11
:10FE200065206974657261736A6F6E206E722E3A16
:10FE30002025640D0A000000202020206E72665FDD
:10FE40006472765F636F6D6D6F6E5F6972715F650F
:10FE50006E61626C652E2E0D0A00000020202020AD
:10FE60006E72665F6472765F636F6D6D6F6E5F69F1
:10FE700072715F656E61626C65642E2E0D0A000002
:10FE8000202020206E72665F74696D65725F6D6FF1
:10FE900064655F7365742E2E0D0A000020202020FB
:10FEA0006E72665F74696D65725F6269745F7769AF
:10FEB0006474685F7365742E2E0D0A002020202064
:10FEC0006E72665F74696D65725F66726571756585
:10FED0006E63795F7365742E2E0D0A00F0B5DDE94F
:10FEE000054541EA420646EA830646EA042646EA12
:10FEF0000547024E46F82070F0BD00000007005094
:10FF00007CB505460C46002000902346024601467B
:10FF100001902846FFF7E2FF7CBD1CB50446002097
:10FF2000009003460122114601902046FFF7D6FFBC
:10FF30001CBD0000074A52F8202022F44033054A35
:10FF400042F8203052F8202042EA0143014A42F8A8
:10FF5000203070470007005001218140014A1160A4
:10FF6000704700000C05005001218140014A1160DA
:10FF7000704700000C050050014603480068C84067
:10FF800000F0010070470000100500500121814081
:10FF9000014A116070470000080500500146014801
:10FFA000084470470060004038B504462046FFF71B
:10FFB000F5FF002101602046FFF7F0FF0068009088
:10FFC00000BF38BD10B504462046FFF7E7FF0068C4
:10FFD000012800D110BD0020FCE70000024A10609B
:10FFE000121D1160704700002C76004010B50A7891
:10FFF00002F003024B78302404EA03131A438B788F
:020000040002F8
:100000004FF4E06404EA03231A43CB784FF480549E
:1000100004EA03331A430B794FF4E02404EA034360
:100020001A434B794FF4801404EA03531343084AEC
:1000300002EB001293608A79CB79054C04EB001433
:100040006360034C04EB0014226000BF10BD00008D
:1000500010750040044B03EB00135A60024B03EB96
:1000600000131960704700001075004001460348F6
:10007000085808B1012070470020FCE700700040DC
:100080000021014A8150704700700040014908601A
:100090007047000008730040014908607047000085
:1000A000047300400121014A8150704700700040F4
:1000B00001464FF4A07000EB810080B2704701460A
:1000C0004FF4803088407047002242507047C0F89B
:1000D00008137047C0F804137047D0F800228A4311
:1000E000C0F8002270470122425070470146D1F803
:1000F0008004C1F8800470470246505808B10120BE
:1001000070470020FCE7002242507047C0F80813F7
:1001100070470246D2F80403084008B10120704736
:100120000020FCE70122425070470146D1F88004CC
:10013000C1F8800470470246505808B1012070474A
:100140000020FCE7002242507047014640F23C503C
:10015000405870472DE9F04106460D4617460024E9
:100160005DE0285D304908550846C07902281AD15B
:1001700000202E4908702E4908702E4908702E491B
:1001800008702E4908702E490870274800782D49BC
:1001900008702B49087003202A49C8710020887113
:1001A000294908701FE02048C079012812D1192080
:1001B00001218140254A116000BF6420FFF7CEFB7A
:1001C0001920FFF7C9FE00201E49C87188711E4919
:1001D000087008E01448C079032804D11949C8718F
:1001E00000201949087010488079012816D1002094
:1001F0000E4908700E4908700E4908700E490870C3
:100200000E4908700E490870074800780D490870BB
:100210000B49087000200B49C8718871641C082CB8
:100220009FD3BDE8F08100000020002015200020B1
:100230001420002013200020122000201120002074
:100240001020002008200020F01F0020080500508A
:1002500070B5054695B1032D13D10220FEF719FAAA
:10026000044600BF26463EB100BF07A240F273110C
:100270003046FDF79AFA00BF00BF03E000F070FEC1
:1002800000E000BF00BF70BD2E2E5C2E2E5C2E2E17
:100290005C6D61696E2E630070B505462888102874
:1002A00006D0112818D013282BD0522851D13CE069
:1002B0000720FEF7EEF9044600BF26463EB100BF18
:1002C00025A240F289113046FDF76FFA00BF00BF4A
:1002D000A888254908803DE00020FEF7DAF90446A9
:1002E00000BF26463EB100BF1BA240F28F11304630
:1002F000FDF75BFA00BF00BF4FF6FF701A49088098
:1003000028E000231A468521174800887FDF04462D
:1003100000BF26463EB100BF0FA24FF4CB7130465E
:10032000FDF743FA00BF00BF14E000231A46194648
:100330000D480088A9DF044600BF26463EB100BF35
:1003400005A24FF4CE713046FDF72FFA00BF00BF73
:1003500000E000BF00BF70BD2E2E5C2E2E5C2E2E46
:100360005C6D61696E2E6300EA1F002070B5054662
:10037000287880B93B210848008876DF044600BF12
:1003800026463EB100BF05A24FF497713046FDF7F7
:100390000CFA00BF00BF70BDEA1F00202E2E5C2E9D
:1003A0002E5C2E2E5C6D61696E2E630010B50446C6
:1003B0000349A2680A60E0684860FEF7BBFA10BD16
:1003C0006820002010B50446A08808490880084924
:1003D000A2690A60E0694860002006490870064882
:1003E000C08908B9FEF7A6FA10BD000066200020FB
:1003F00068200020642000204C2400208A8882820B
:100400007047000070B505464FF6FF700949088037
:1004100000200949087009480068FDF7C1FA044640
:1004200034B10748806918B105488169204688477A
:1004300070BD00006620002064200020981E02008D
:100440004C2400204FF6FF728282704770B505463B
:10045000AC1D20881149C98988421DD160890228B4
:100460001AD100BF00BF217B627B41EA022108460E
:1004700000F0010111B1FEF75DFA0DE008480068D7
:10048000FDF78EFA064636B10448806918B1034874
:1004900081693046884700BF70BD00004C240020B1
:1004A000981E020070B504460E46B51D2988208AA4
:1004B000814212D1688902280FD100BF00BF297B79
:1004C0006A7B41EA0221084600F0010111B10120D6
:1004D000A0750EE00020A0750BE02888A188884256
:1004E00007D1A06928B16A8905F10C012046A369EA
:1004F000984770BD0246002104E0505C08B101201D
:100500007047491C0629F8D30020F9E7014600BFCF
:100510000748007800F0040008B90820704700BFC1
:1005200009B90E20FAE70348407808600020F5E793
:10053000A4200020582500204FF0005000BF0249A1
:1005400009688902084470470C01001001490860DD
:1005500070470000401501400148006870470000E6
:100560000415014010B5044603480460062111201B
:10057000FCF71AF910BD00000815014010B54FF442
:1005800080300A4908600A49C1F804031120FCF7C9
:10059000E7F81120FCF7F0F80120054908602F204A
:1005A000FBF774FF01200349087010BD441301409C
:1005B00000100140D420002010B5112001218140FD
:1005C0000E4A430942F8231000BF4FF480300C4913
:1005D00008600C49C1F80803012048602F20FBF790
:1005E00055FF0120074988600020074908602F2037
:1005F000FBF74CFF00200549087010BD80E100E0CA
:100600004813014000100140C0200020D4200020E9
:1006100010B51048C07D40B94FF484710E48FFF703
:1006200072FD00BF0D48006810BD4FF484710A4888
:10063000FFF769FD00BF09480068C0B20549C968F5
:10064000044A527E88540348407E401C0149487643
:1006500000BFE9E7382500200020004018250040B1
:1006600030B58FB004460D460020079000BF9DF8BE
:100670001C0020F00F00401C8DF81C009DF81C0091
:1006800020F0F00010308DF81C0000BF00BF9DF876
:100690001D0020F00F00401C8DF81D009DF81D006E
:1006A00020F0F00010308DF81D0000BF9DF81E00F6
:1006B00020F00600801C8DF81E001C2108A8FBF706
:1006C0004CFF9DF8200020F0100010308DF8200025
:1006D000002009900B900C9007A80D9000200E9020
:1006E00020788DF8060042F20100ADF804000020E9
:1006F000009000BF9DF8000020F00F00401C8DF816
:1007000000009DF8000020F0F00010308DF800008F
:1007100000BF00BF9DF8010020F00F00401C8DF8C5
:1007200001009DF8010020F0F00010308DF801006C
:1007300000BF9DF8020020F00600801C8DF802002A
:100740009DF8020020F008008DF802009DF80200DC
:1007500020F010008DF802009DF8020020F001004A
:10076000401C8DF80200142102A8FBF7F6FE01A838
:100770000290CDF80CD00120ADF810000020ADF8AB
:1007800012001420ADF81400608804F10C0302AAD2
:1007900008A9A2DF0FB030BD7FB504460D46012089
:1007A0008DF800008DF80840019503480168426803
:1007B000684690477FBD0000382500202DE9F041B4
:1007C00006463078002866D10025002704E07068CE
:1007D00030F9170005447F1C032FF8DB2F480088F1
:1007E00010B928B22D4908802C48B0F900001E30FD
:1007F000854205DC2948B0F900001E38A84213DD07
:1008000027480078401C26490870084600780328CD
:1008100012DD01202349087023A10020FCF76EF9A6
:1008200000201F49087007E01D48007820B11C48CF
:100830000078401E1A4908702A461FA10020FCF7C4
:100840005DF928B21549088003217068FFF752F955
:10085000044600BFA046B8F1000F07D000BF1AA29F
:100860004FF42E714046FCF7A0FF00BF00BF8CB1D3
:10087000082C0FD043F2040084420BD043F2014015
:10088000844207D000BF10A240F2C5212046FCF7E9
:100890008CFF00BF00BFBDE8F081000030200020C9
:1008A000FF1F0020F01F00202020202052697374B9
:1008B0006573200D0A00000054696D65204576655A
:1008C0006E742125640D0A002E2E5C2E2E5C2E2EB9
:1008D0005C6D61696E2E630030B587B0474803C810
:1008E000CDE9050102208DF818008DF816000120D1
:1008F0008DF817004149083103C9CDE903010220F1
:100900008DF810008DF80E0001208DF80F003B4986
:10091000103103C9CDE9010102208DF808008DF8DE
:10092000060001208DF8070035490020FFF754F933
:10093000044600BF25463DB100BF32A240F2E1218E
:100940002846FCF732FF00BF00BF05A90020FFF7D3
:1009500017F9044600BF25463DB100BF29A240F269
:10096000E5212846FCF721FF00BF00BF03A90120B5
:10097000FFF706F9044600BF25463DB100BF21A29E
:1009800040F2E7212846FCF710FF00BF00BF01A995
:100990000220FFF7F5F8044600BF25463DB100BF31
:1009A00018A240F2E9212846FCF7FFFE00BF00BF75
:1009B00003211848FFF79EF8044600BF25463DB1C5
:1009C00000BF10A240F2ED212846FCF7EEFE00BF6A
:1009D00000BF03210F48801DFFF78CF8044600BFBD
:1009E00025463DB100BF07A24FF43C712846FCF7F5
:1009F000DCFE00BF00BF07B030BD0000801E02005B
:100A0000BD0702002E2E5C2E2E5C2E2E5C6D6169C1
:100A10006E2E63001421002070B509480078FFF79E
:100A20003DF8044600BF25463DB100BF05A240F297
:100A300096212846FCF7B9FE00BF00BF70BD00003C
:100A4000E81F00202E2E5C2E2E5C2E2E5C6D616920
:100A50006E2E63002DE9F843FFF740F8044600BF0F
:100A6000A046B8F1000F07D000BF38A24FF41F71A5
:100A70004046FCF79AFE00BF00BF384A00213848C4
:100A8000FFF73AF9044600BFA046B8F1000F07D0BF
:100A900000BF2EA240F27F214046FCF786FE00BF39
:100AA00000BFC8212E4B1A68D2F8100500BF0246BD
:100AB0004FF47A5311FB03F323FA02F500BF00BF92
:100AC000012002232A46014600902548FFF7F2F84C
:100AD0002348FFF7DDF80120214B1A684FF4A0737B
:100AE00003EB800100BF561800BF00BF00BF042009
:100AF0001C49471800BF00BF1B48FEF773FF0446A0
:100B000000BFA046B8F1000F07D000BF0FA24FF4FE
:100B100023714046FCF749FE00BF00BF3A4631460C
:100B200011480078FEF794FF044600BFA046B8F1D4
:100B3000000F07D000BF05A240F28F214046FCF70E
:100B400034FE00BF00BFBDE8F88300002E2E5C2EEF
:100B50002E5C2E2E5C6D61696E2E63008912020080
:100B6000741E020000700040E81F002038B50446E3
:100B70000B4800900098A04210D0FFF7DDFC05461E
:100B8000234608A10020009AFEF7EEFA2D1B2A4604
:100B900011A10020FEF7E8FA002038BD0020FCE794
:100BA000E81F002052414D205354415254204144EB
:100BB000445220307825782073686F756C64206209
:100BC000652061646A757374656420746F20307881
:100BD00025780D0A0000000052414D2053495A4526
:100BE0002073686F756C642062652061646A757338
:100BF00074656420746F2030782578200D0A000019
:100C000010B501460846202808DA012282402C4B04
:100C10001A400AB101220EE000220CE0402809DA55
:100C2000A0F12002012303FA02F20AB1012202E03C
:100C3000002200E0012212B942F2010010BD0A4672
:100C4000002A06DA1F4B02F00F04241F1B5D5B090C
:100C500002E01D4B9B5C5B091846082801D300226B
:100C600009E028B1012803D0042801D0052801D1CA
:100C7000002200E0012212B942F20200DEE713482E
:100C8000806868B14809114A52F8200001F01F033A
:100C900001229A4010434A090C4B43F822000CE011
:100CA00000BF01F01F02012090404A09920002F1AA
:100CB000E022C2F8000100BF00BF0020BEE7000034
:100CC000FC06FFBC18ED00E000E400E0902F0020DF
:100CD00070B50446FCF752FB054614488068D8B945
:100CE00001201249886012480068124908400F49E3
:100CF000086010484FF0E021C1F880010C488038AE
:100D0000D0F88400094948604FF0FF310848001DC1
:100D100001600020207001E0012020701DB900BF9B
:100D200062B600BF00BF002070BD0000902F002001
:100D300080E100E0FC06FFBC30B504461088C01C12
:100D4000984201D90C2030BD0220158848551088E2
:100D5000401C10801120158848551088401C1080B8
:100D600010880C541088401C10800020EBE72DE9FF
:100D7000F04707460E4614469A46B86A10B907204F
:100D8000BDE8F0874FF0000836E008EB4801B86A8C
:100D900000EB8105A88800F10209B9F1FE0F01D925
:100DA0000C20EDE709F10100218870542088401CD7
:100DB00020801620218870542088401C20802288A2
:100DC0009119288800F024FF218808442080A888F1
:100DD00000280DDDA86808B90720D1E7AA88238874
:100DE0009819A968FBF7A0FB2088A98808442080EF
:100DF00008F1010000F0FF0897F82C004045C4DC22
:100E00000020BDE738B5002000900A4800906946F0
:100E10000948FDF705FA044600BF25463DB100BF6D
:100E200006A24FF48D712846FCF7BFFC00BF00BF3F
:100E300038BD000055010200F82000202E2E5C2E47
:100E40002E5C2E2E5C6D61696E2E630010B5002045
:100E5000FFF763F80120FFF760F80220FFF75DF865
:100E60000320FFF75AF80420FFF757F80620FFF792
:100E700054F80520FFF751F801210820FFF740F84A
:100E800001210720FFF73CF801210A20FFF738F87D
:100E900001210920FFF734F801210C20FFF730F879
:100EA00001210B20FFF72CF80620FFF76FF8052033
:100EB000FFF75AF810BD10B50320FFF767F80120BF
:100EC000FEF74CFD0320FFF74FF80120FEF746FD2B
:100ED00010BD10B50420FFF759F80120FEF73EFDC4
:100EE0000420FFF741F80120FEF738FD10BD2DE981
:100EF000F04104460D46164600272AE004F0800023
:100F000018B10020FFF730F805E004F0800010B9B8
:100F10000020FFF73BF805F0800018B10120FFF733
:100F200023F802E00120FFF731F806F0800018B145
:100F30000220FFF719F802E00220FFF727F8FFF779
:100F4000C8FF6006040E6806050E7006060E781CC3
:100F5000C7B2082FD2DBFFF7AEFFBDE8F08100007B
:100F600070B50020FDF795FB044600BF25463DB156
:100F700000BF13A24FF4AD712846FCF716FC00BF6A
:100F800000BFFDF731FB044600BF25463DB100BF61
:100F90000BA24FF4AF712846FCF707FC00BF00BF5F
:100FA0003CDF044600BF25463DB100BF04A24FF41C
:100FB000B1712846FCF7F9FB00BF00BF70BD00000F
:100FC0002E2E5C2E2E5C2E2E5C6D61696E2E6300C3
:100FD000014600BF09B90E20704700BF01480160FB
:100FE0000020F9E7EC2000207CB50646154800906B
:100FF0000098019014A10020019AFEF7B5F801A90C
:10100000304660DF0446DDE9001088420FD0FFF76C
:1010100093FA054615A10020019AFEF7A5F801985C
:101020002D1A2A4620A10020FEF79EF807E034B1D1
:10103000224627A10020FEF797F800BFFEE72046D2
:101040007CBD0000E81F002073645F626C655F6513
:101050006E61626C653A2052414D205354415254A6
:1010600020617420307825780D0A000073645F6277
:101070006C655F656E61626C653A206170705F726D
:10108000616D5F626173652073686F756C64206267
:10109000652061646A757374656420746F203078AC
:1010A00025780D0A0000000072616D2073697A6571
:1010B0002073686F756C642062652061646A757363
:1010C00074656420746F2030782578200D0A000044
:1010D00073645F626C655F656E61626C653A206522
:1010E00072726F7220307825780D0A0070B505464F
:1010F0000E46144614212046FBF72FFA01202080CB
:10110000002121610020207326726572607A08B187
:101110000121A172002070BD70B504460D4616462F
:10112000324629462046FCF733FB70BD2DE9F041DD
:1011300080460C4616461F46FDF7E8FF14B9072007
:10114000BDE8F081204600F0030109B9012100E06B
:10115000002109B90720F3E709480460094806801F
:10116000094807600949404610DF05460DB1284689
:10117000E6E70120064908701620FFF741FDDFE78A
:10118000E4200020E8200020DC20002019110200CB
:10119000E0200020014600BF09B90E20704700BFC3
:1011A000014801600020F9E7F02000200146C878DE
:1011B00008B1072070470020FCE77CB5044601A970
:1011C0000020FDF71FFA054600BF0DB128467CBD83
:1011D00000BF69460120FDF715FA054600BF0DB1B5
:1011E0002846F4E700BF9DF8000010B102202070EF
:1011F00007E09DF8040010B10B20207001E00020F2
:1012000020700020E3E710B504462046FCF742FAC0
:1012100010BD0246501A20F07F40704770B504465A
:101220000C48006890B10B4AD4E905011268904758
:10123000054600BF2E463EB100BF07A240F2651131
:101240003046FCF7B2FA00BF00BF02E0D4E9051057
:10125000884770BDD02000202E2E5C2E2E5C2E2EB6
:101260005C636F6D706F6E656E74735C6C696272D7
:1012700061726965735C74696D65725C6170705FE1
:1012800074696D65722E63002DE9F04104460D46C8
:10129000B4F5A27F75D10021844801600120844902
:1012A000C86084480068401C82490860084682A1E2
:1012B00002680020FBF722FC8548C079032806D18C
:1012C0007C4800682C2803DD00207A490860E8E0AB
:1012D0007848006822283FDD7E48007803280DD139
:1012E00001207D4908707D4908707D4908707D495D
:1012F00008707D490870774908700CE00320764932
:101300000870764908707649087076490870764901
:10131000087070490870754B704E36789B5D744E3E
:101320006D4F3F78F65D3344DAB2704B6D4E3678D0
:101330009B5D6F4E6A4F3F78F65D3344D9B26B4B7D
:10134000644E36789B5D6A4E674F3F78F65D334456
:10135000D8B2FFF7CCFDA4E05648006818283FDD5E
:101360005C48007870B904205B4908705B490870DC
:101370005B4908705B4908705B4908705549087003
:101380000DE08FE00020544908705449087054491A
:10139000087054490870544908704E490870534BFE
:1013A0004E4E36789B5D524E4B4F3F78F65D334440
:1013B000DAB24E4B4B4E36789E5D4D4B484F3F78E0
:1013C000DB5D3344D9B2494B424E36789B5D484E83
:1013D000454F3F78F65D3344D8B2FFF788FD60E0B3
:1013E0003448007800F0010000285AD03A480178CB
:1013F0000820FDF758F937490978884207D1354860
:1014000001780820FDF74FF93249087006E03248AC
:1014100001780820FDF747F92E4908702D4801781A
:101420000820FDF740F93049087008460178082087
:10143000FDF739F92B490870084601780820FDF7B7
:1014400032F927490870084601780820FDF72BF982
:1014500022490870084601780820FDF724F91E4942
:101460000870224B1D4E36789B5D214E0F463F780B
:10147000F65D3344DAB21D4B1A4E36789E5D1C4B36
:10148000174F3F78DB5D3344D9B2184B114E367895
:101490009E5D174B144F3F78DB5D3344D8B2FFF7A6
:1014A00026FD00E000BF00BFBDE8F0814491004090
:1014B000009000402C20002054696D652045766521
:1014C0006E7421206E723A2025640D0A000000001F
:1014D00008200020102000201520002014200020CB
:1014E00013200020122000201120002016200020B0
:1014F0001D2000202DE9FC41002001900F480468C8
:101500000F4807686846FDF781FA0546FDF72CFD90
:1015100006462DB101AA21460098FDF775FB01266C
:101520000198FDF76DFD00B1012616B13846FDF7B3
:101530000BF9002003490870BDE8FC81C0200020A1
:10154000BC200020D520002010B51420FBF720F986
:1015500010BD000010B51849096811B91649086096
:1015600028E0154A01681268126891420DD81249A4
:10157000096809680268891A0F4A126811600E49E1
:101580000968C1610C49086014E002680A4C2368CC
:10159000216803E00C68121B0B46C96911B10C6885
:1015A0009442F7D311B10C68A41A0C600260C161B7
:1015B000D86100BF10BD0000BC20002030B502463D
:1015C000154C2168084604E0904200D103E0014632
:1015D000C0690028F8D100BF00B930BD814210D1E8
:1015E0000D4C2468E4690C4D2C602C46246844B9E9
:1015F00001240A4DAC600024094D2C600124094DE2
:101600002C700368C469CC61C86910B104681C44BB
:10161000046000BFE1E70000BC2000200010014092
:10162000C0200020D52000202DE9F84305460E46B5
:1016300017469846DDF820901149096801EBC5006E
:10164000694600F05FFB044614B90420BDE8F88346
:10165000012020706660FEF77FFFA060E760C4F89D
:101660001080C4F814900649096801EBC5009DF884
:10167000001000F05FFBFFF767FF0020E6E70000C7
:10168000B8200020F8B504460E460D49096801EB64
:10169000C400694600F036FB05460DB90420F8BDCC
:1016A000022028706E600649096801EBC4009DF8AD
:1016B000001000F03FFBFFF747FF0020EFE70000BE
:1016C000B82000202DE9F0411F480068002838D0DC
:1016D0000027FEF741FF80461C4801684046FFF79F
:1016E00098FD06461848056810E02868B04200D901
:1016F0000EE02868361A286807442C46ED69207CDD
:1017000020B1002020742046FFF788FD002DECD189
:1017100000BF0F4800780F490978884209D10D4869
:101720000078401CC0B20B490870022801D100208B
:10173000087009480749097840F82170FFF704FF4D
:1017400000BFBDE8F0810000BC200020C0200020C8
:10175000CC200020CD200020C420002010B5112076
:10176000FBF716F810BD000010B54FF4B4700D492A
:1017700008600D4848600E2008810C48486101F15E
:101780000A0071DF04460CB1204610BD0548C07A3E
:10179000401CC1B20348C172FBF752FFFBF7C0FF08
:1017A0000020F2E768210020F11F002091DA0100FB
:1017B00070B504461D4610881230A84201D90C208D
:1017C00070BD1120168888551088401C108010208C
:1017D000168888551088401C10800F2307E0E05CB5
:1017E00016888855581E43B21088401C1080002B64
:1017F000F5DA0020E4E7000010B54FF48E710948D7
:10180000FEF781FC084880680749898A445C0648DD
:10181000808A401C0449888220460449086000BF31
:1018200010BD000000200040382500201C2500408D
:1018300030B58FB004460D461C2108A8FAF78DFE7E
:101840009DF8200020F0080008308DF820009DF859
:10185000200020F00400001D8DF8200000200990D9
:101860000B900C900D900E9020788DF80A004FF49C
:101870000050ADF808000020019000BF9DF8040062
:1018800020F00F00401C8DF804009DF8040020F0AB
:10189000F00010308DF8040000BF00BF9DF8050077
:1018A00020F00F00401C8DF805009DF8050020F089
:1018B000F00010308DF8050000BF9DF8060020F004
:1018C0000600801C8DF806009DF8060020F0080038
:1018D0008DF806009DF8060020F010008DF8060037
:1018E0009DF8060020F00100401C8DF80600142130
:1018F00003A8FAF732FE02A8039001A80490012081
:10190000ADF814000020ADF816001420ADF8180052
:101910006088231D03AA08A9A2DF0FB030BD000014
:101920001FB5044600208DF800008DF808400648D9
:101930008068019000200449887508460168426863
:10194000684690471FBD00003825002030B504468A
:101950001088C01C984201D90C2030BD0220158887
:1019600048551088401C10800A201588485510885A
:10197000401C108015884C551088401C1080002099
:10198000EBE700007FB54FF400715448FEF7C1FB50
:1019900068B34FF492715148FEF7AEFB38B34FF481
:1019A00092714E48FEF7AFFB4FF401714B48FEF7C2
:1019B000ADFB4B48807E18B904214848FEF7B2FBC6
:1019C00002208DF800004548FEF790FB0390444844
:1019D000C17D8DF80810C068019000204049C8758D
:1019E0000876084601684268684690473CE0042152
:1019F0003A48FEF78EFB002836D04FF48471374802
:101A0000FEF77AFB00282FD0FEF702FE3448C07D97
:101A10003349497E884227D13148007E80B1304821
:101A2000C468457E007E2E49C87508460069C860B6
:101A300000200876487621462846FEF7ADFE13E0E2
:101A40002748807E18B904212448FEF76BFB4FF429
:101A500001712248FEF75AFB00202149C8750A4649
:101A6000D168507EFEF798FE4FF48E711B48FEF74A
:101A700043FBA0B11A48808A1949897D884202DA5D
:101A8000FFF7BAFE0BE04FF48E711448FEF73BFBF4
:101A90001348807D18B11249887DFFF741FF4FF44C
:101AA000A2710E48FEF728FBB0B14FF4A2710B48AB
:101AB000FEF729FB0A48807E18B100210748FEF78F
:101AC00031FB0748C07D38B100200549C8750A467A
:101AD000D168507EFEF760FE7FBD00000020004010
:101AE000382500207FB54FF492714648FEF723FB5E
:101AF000F0B14FF492714348FEF724FB02208DF8B9
:101B000000004048FEF711FB03903E48FEF71DFB26
:101B1000C1B28DF808103C48C068019000203A49D5
:101B2000C87508760846016842686846904737E0FD
:101B30004FF488713348FEF7FEFA002830D04FF496
:101B400088713048FEF7FEFA2E48FEF7FEFAC4B25E
:101B50002D48C07DA04222D12B48007EB8B12A4832
:101B6000C5682020294909688143264AC2F8001225
:101B700000BF2548007E2449C87508460069C86032
:101B80000020087629462046FEF706FE07E00020E2
:101B90001D49C8750846C1682046FEF7FDFD00BF17
:101BA0004FF4A2711748FEF7C6FA98B14FF4A2712C
:101BB0001448FEF7C7FA1448C07D58B100201249F6
:101BC000C8751048FEF7C1FAC4B20F48C168204674
:101BD000FEF7E2FD4FF490710A48FEF7ACFA78B1D7
:101BE0004FF490710748FEF7ADFA0748807D38B191
:101BF000044840F24C510958CCB22046FFF790FE01
:101C00007FBD000000200040382500200022004059
:101C100002460A70100A48700220704738B505461F
:101C20001E4800884FF6FF71884235D01C48007866
:101C3000401C1B4908701B48007B097888420DDB5B
:101C400019491648008875DF044634B11548806983
:101C500018B114488169204688471DE000201049CA
:101C600008701048007C68B13B210C48008876DF82
:101C7000044634B10B48806918B10A48816920468E
:101C8000884700BF0748406930B1002000900548F0
:101C900041696846884700BF38BD000066200020C3
:101CA000642000204C2400205C20002030B500BFC0
:101CB00000BFEFF30581C1F3080282B1A2F1100366
:101CC00059B2002906DA0D4C01F00F052D1F645D95
:101CD000640902E00A4C645C6409E1B200E00F218F
:101CE000022902D0062904D101E0002003E00120EE
:101CF00001E0022000BF00BF30BD000018ED00E091
:101D000000E400E030B502460B465078401CC1B2FA
:101D10009078884200D100211078884201D10020BB
:101D200030BD1970557805EB4505506800EBC504CA
:101D30002046F5E7417070472DE9FC47804689460B
:101D400015469A46DDE90A6753460222494640464F
:101D5000CDE9006700F017F8044600BF14B1204633
:101D6000BDE8FC8700BF5346102229464046CDE916
:101D7000006700F008F8044600BF0CB12046EFE70A
:101D800000BF0020ECE72DE9FF5F06468B46964634
:101D90001D460E9C4FF000082088039000274AE063
:101DA000706800EB870000680190002202A901A87A
